{
  "_format": "hh-sol-artifact-1",
  "contractName": "NFTminting",
  "sourceName": "contracts/NFTminting.sol",
  "abi": [
    {
      "inputs": [
        {
          "internalType": "string",
          "name": "_name",
          "type": "string"
        },
        {
          "internalType": "string",
          "name": "_symbol",
          "type": "string"
        }
      ],
      "stateMutability": "nonpayable",
      "type": "constructor"
    },
    {
      "anonymous": false,
      "inputs": [
        {
          "indexed": true,
          "internalType": "address",
          "name": "owner",
          "type": "address"
        },
        {
          "indexed": true,
          "internalType": "address",
          "name": "approved",
          "type": "address"
        },
        {
          "indexed": true,
          "internalType": "uint256",
          "name": "tokenId",
          "type": "uint256"
        }
      ],
      "name": "Approval",
      "type": "event"
    },
    {
      "anonymous": false,
      "inputs": [
        {
          "indexed": true,
          "internalType": "address",
          "name": "owner",
          "type": "address"
        },
        {
          "indexed": true,
          "internalType": "address",
          "name": "operator",
          "type": "address"
        },
        {
          "indexed": false,
          "internalType": "bool",
          "name": "approved",
          "type": "bool"
        }
      ],
      "name": "ApprovalForAll",
      "type": "event"
    },
    {
      "anonymous": false,
      "inputs": [
        {
          "indexed": true,
          "internalType": "address",
          "name": "to",
          "type": "address"
        },
        {
          "indexed": true,
          "internalType": "uint256",
          "name": "tokenId",
          "type": "uint256"
        }
      ],
      "name": "Mint",
      "type": "event"
    },
    {
      "anonymous": false,
      "inputs": [
        {
          "indexed": true,
          "internalType": "address",
          "name": "from",
          "type": "address"
        },
        {
          "indexed": true,
          "internalType": "address",
          "name": "to",
          "type": "address"
        },
        {
          "indexed": true,
          "internalType": "uint256",
          "name": "tokenId",
          "type": "uint256"
        }
      ],
      "name": "Transfer",
      "type": "event"
    },
    {
      "inputs": [
        {
          "internalType": "address",
          "name": "to",
          "type": "address"
        },
        {
          "internalType": "uint256",
          "name": "tokenId",
          "type": "uint256"
        }
      ],
      "name": "approve",
      "outputs": [],
      "stateMutability": "nonpayable",
      "type": "function"
    },
    {
      "inputs": [
        {
          "internalType": "address",
          "name": "_owner",
          "type": "address"
        }
      ],
      "name": "balanceOf",
      "outputs": [
        {
          "internalType": "uint256",
          "name": "",
          "type": "uint256"
        }
      ],
      "stateMutability": "view",
      "type": "function"
    },
    {
      "inputs": [
        {
          "internalType": "address",
          "name": "to",
          "type": "address"
        },
        {
          "internalType": "uint256[]",
          "name": "tokenIds",
          "type": "uint256[]"
        }
      ],
      "name": "batchMint",
      "outputs": [],
      "stateMutability": "nonpayable",
      "type": "function"
    },
    {
      "inputs": [
        {
          "internalType": "uint256",
          "name": "tokenId",
          "type": "uint256"
        }
      ],
      "name": "getApproved",
      "outputs": [
        {
          "internalType": "address",
          "name": "",
          "type": "address"
        }
      ],
      "stateMutability": "view",
      "type": "function"
    },
    {
      "inputs": [
        {
          "internalType": "address",
          "name": "_owner",
          "type": "address"
        },
        {
          "internalType": "address",
          "name": "operator",
          "type": "address"
        }
      ],
      "name": "isApprovedForAll",
      "outputs": [
        {
          "internalType": "bool",
          "name": "",
          "type": "bool"
        }
      ],
      "stateMutability": "view",
      "type": "function"
    },
    {
      "inputs": [
        {
          "internalType": "address",
          "name": "to",
          "type": "address"
        },
        {
          "internalType": "uint256",
          "name": "tokenId",
          "type": "uint256"
        },
        {
          "internalType": "string",
          "name": "_tokenURI",
          "type": "string"
        }
      ],
      "name": "mint",
      "outputs": [],
      "stateMutability": "nonpayable",
      "type": "function"
    },
    {
      "inputs": [],
      "name": "name",
      "outputs": [
        {
          "internalType": "string",
          "name": "",
          "type": "string"
        }
      ],
      "stateMutability": "view",
      "type": "function"
    },
    {
      "inputs": [],
      "name": "owner",
      "outputs": [
        {
          "internalType": "address",
          "name": "",
          "type": "address"
        }
      ],
      "stateMutability": "view",
      "type": "function"
    },
    {
      "inputs": [
        {
          "internalType": "uint256",
          "name": "tokenId",
          "type": "uint256"
        }
      ],
      "name": "ownerOf",
      "outputs": [
        {
          "internalType": "address",
          "name": "",
          "type": "address"
        }
      ],
      "stateMutability": "view",
      "type": "function"
    },
    {
      "inputs": [
        {
          "internalType": "address",
          "name": "operator",
          "type": "address"
        },
        {
          "internalType": "bool",
          "name": "approved",
          "type": "bool"
        }
      ],
      "name": "setApprovalForAll",
      "outputs": [],
      "stateMutability": "nonpayable",
      "type": "function"
    },
    {
      "inputs": [],
      "name": "symbol",
      "outputs": [
        {
          "internalType": "string",
          "name": "",
          "type": "string"
        }
      ],
      "stateMutability": "view",
      "type": "function"
    },
    {
      "inputs": [
        {
          "internalType": "uint256",
          "name": "tokenId",
          "type": "uint256"
        }
      ],
      "name": "tokenURI",
      "outputs": [
        {
          "internalType": "string",
          "name": "",
          "type": "string"
        }
      ],
      "stateMutability": "view",
      "type": "function"
    },
    {
      "inputs": [
        {
          "internalType": "address",
          "name": "from",
          "type": "address"
        },
        {
          "internalType": "address",
          "name": "to",
          "type": "address"
        },
        {
          "internalType": "uint256",
          "name": "tokenId",
          "type": "uint256"
        }
      ],
      "name": "transferFrom",
      "outputs": [],
      "stateMutability": "payable",
      "type": "function"
    }
  ],
  "bytecode": "0x60806040523480156200001157600080fd5b506040516200311738038062003117833981810160405281019062000037919062000237565b816000908162000048919062000507565b5080600190816200005a919062000507565b5033600260006101000a81548173ffffffffffffffffffffffffffffffffffffffff021916908373ffffffffffffffffffffffffffffffffffffffff1602179055505050620005ee565b6000604051905090565b600080fd5b600080fd5b600080fd5b600080fd5b6000601f19601f8301169050919050565b7f4e487b7100000000000000000000000000000000000000000000000000000000600052604160045260246000fd5b6200010d82620000c2565b810181811067ffffffffffffffff821117156200012f576200012e620000d3565b5b80604052505050565b600062000144620000a4565b905062000152828262000102565b919050565b600067ffffffffffffffff821115620001755762000174620000d3565b5b6200018082620000c2565b9050602081019050919050565b60005b83811015620001ad57808201518184015260208101905062000190565b60008484015250505050565b6000620001d0620001ca8462000157565b62000138565b905082815260208101848484011115620001ef57620001ee620000bd565b5b620001fc8482856200018d565b509392505050565b600082601f8301126200021c576200021b620000b8565b5b81516200022e848260208601620001b9565b91505092915050565b60008060408385031215620002515762000250620000ae565b5b600083015167ffffffffffffffff811115620002725762000271620000b3565b5b620002808582860162000204565b925050602083015167ffffffffffffffff811115620002a457620002a3620000b3565b5b620002b28582860162000204565b9150509250929050565b600081519050919050565b7f4e487b7100000000000000000000000000000000000000000000000000000000600052602260045260246000fd5b600060028204905060018216806200030f57607f821691505b602082108103620003255762000324620002c7565b5b50919050565b60008190508160005260206000209050919050565b60006020601f8301049050919050565b600082821b905092915050565b6000600883026200038f7fffffffffffffffffffffffffffffffffffffffffffffffffffffffffffffffff8262000350565b6200039b868362000350565b95508019841693508086168417925050509392505050565b6000819050919050565b6000819050919050565b6000620003e8620003e2620003dc84620003b3565b620003bd565b620003b3565b9050919050565b6000819050919050565b6200040483620003c7565b6200041c6200041382620003ef565b8484546200035d565b825550505050565b600090565b6200043362000424565b62000440818484620003f9565b505050565b5b8181101562000468576200045c60008262000429565b60018101905062000446565b5050565b601f821115620004b75762000481816200032b565b6200048c8462000340565b810160208510156200049c578190505b620004b4620004ab8562000340565b83018262000445565b50505b505050565b600082821c905092915050565b6000620004dc60001984600802620004bc565b1980831691505092915050565b6000620004f78383620004c9565b9150826002028217905092915050565b6200051282620002bc565b67ffffffffffffffff8111156200052e576200052d620000d3565b5b6200053a8254620002f6565b620005478282856200046c565b600060209050601f8311600181146200057f57600084156200056a578287015190505b620005768582620004e9565b865550620005e6565b601f1984166200058f866200032b565b60005b82811015620005b95784890151825560018201915060208501945060208101905062000592565b86831015620005d95784890151620005d5601f891682620004c9565b8355505b6001600288020188555050505b505050505050565b612b1980620005fe6000396000f3fe6080604052600436106100c25760003560e01c806370a082311161007f578063a22cb46511610059578063a22cb4651461026d578063c87b56dd14610296578063d3fc9864146102d3578063e985e9c5146102fc576100c2565b806370a08231146101da5780638da5cb5b1461021757806395d89b4114610242576100c2565b806306fdde03146100c7578063081812fc146100f2578063095ea7b31461012f57806323b872dd146101585780634684d7e9146101745780636352211e1461019d575b600080fd5b3480156100d357600080fd5b506100dc610339565b6040516100e99190611a46565b60405180910390f35b3480156100fe57600080fd5b5061011960048036038101906101149190611ab2565b6103c7565b6040516101269190611b20565b60405180910390f35b34801561013b57600080fd5b5061015660048036038101906101519190611b67565b61044c565b005b610172600480360381019061016d9190611ba7565b610555565b005b34801561018057600080fd5b5061019b60048036038101906101969190611d42565b610a7f565b005b3480156101a957600080fd5b506101c460048036038101906101bf9190611ab2565b610d6c565b6040516101d19190611b20565b60405180910390f35b3480156101e657600080fd5b5061020160048036038101906101fc9190611d9e565b610e1d565b60405161020e9190611dda565b60405180910390f35b34801561022357600080fd5b5061022c610ed4565b6040516102399190611b20565b60405180910390f35b34801561024e57600080fd5b50610257610efa565b6040516102649190611a46565b60405180910390f35b34801561027957600080fd5b50610294600480360381019061028f9190611e2d565b610f88565b005b3480156102a257600080fd5b506102bd60048036038101906102b89190611ab2565b6110f3565b6040516102ca9190611a46565b60405180910390f35b3480156102df57600080fd5b506102fa60048036038101906102f59190611f22565b6111e0565b005b34801561030857600080fd5b50610323600480360381019061031e9190611f91565b6114af565b6040516103309190611fe0565b60405180910390f35b600080546103469061202a565b80601f01602080910402602001604051908101604052809291908181526020018280546103729061202a565b80156103bf5780601f10610394576101008083540402835291602001916103bf565b820191906000526020600020905b8154815290600101906020018083116103a257829003601f168201915b505050505081565b60006103d282611543565b610411576040517f08c379a0000000000000000000000000000000000000000000000000000000008152600401610408906120a7565b60405180910390fd5b6005600083815260200190815260200160002060009054906101000a900473ffffffffffffffffffffffffffffffffffffffff169050919050565b600061045782610d6c565b90508073ffffffffffffffffffffffffffffffffffffffff168373ffffffffffffffffffffffffffffffffffffffff16036104c7576040517f08c379a00000000000000000000000000000000000000000000000000000000081526004016104be90612113565b60405180910390fd5b8073ffffffffffffffffffffffffffffffffffffffff163373ffffffffffffffffffffffffffffffffffffffff161480610507575061050681336114af565b5b610546576040517f08c379a000000000000000000000000000000000000000000000000000000000815260040161053d906121a5565b60405180910390fd5b61055083836115af565b505050565b61055f3382611668565b61059e576040517f08c379a000000000000000000000000000000000000000000000000000000000815260040161059590612211565b60405180910390fd5b600073ffffffffffffffffffffffffffffffffffffffff168373ffffffffffffffffffffffffffffffffffffffff160361060d576040517f08c379a00000000000000000000000000000000000000000000000000000000081526004016106049061227d565b60405180910390fd5b600073ffffffffffffffffffffffffffffffffffffffff168273ffffffffffffffffffffffffffffffffffffffff160361067c576040517f08c379a0000000000000000000000000000000000000000000000000000000008152600401610673906122e9565b60405180910390fd5b6000349050600060646003836106929190612338565b61069c91906123a9565b905060006103e86005846106b09190612338565b6106ba91906123a9565b905060006103e8600f856106ce9190612338565b6106d891906123a9565b905060006103e86019866106ec9190612338565b6106f691906123a9565b9050600060646005876107099190612338565b61071391906123a9565b905060006103e8604b886107279190612338565b61073191906123a9565b905060006064600f896107449190612338565b61074e91906123a9565b9050600081838587898b8d61076391906123da565b61076d91906123da565b61077791906123da565b61078191906123da565b61078b91906123da565b61079591906123da565b896107a0919061240e565b9050730f75ff6088f2448874ff6970d9db686d8d7e70bd73ffffffffffffffffffffffffffffffffffffffff166108fc899081150290604051600060405180830381858888f193505050501580156107fc573d6000803e3d6000fd5b50734ab1847fef9cc02523e107e34cf7d32f3d67e3f673ffffffffffffffffffffffffffffffffffffffff166108fc889081150290604051600060405180830381858888f19350505050158015610857573d6000803e3d6000fd5b5073194043e80e905a45f101491a7a150f8faf6bd36673ffffffffffffffffffffffffffffffffffffffff166108fc879081150290604051600060405180830381858888f193505050501580156108b2573d6000803e3d6000fd5b5073e2ff97a603500e9845f4609edf668d0805cf074373ffffffffffffffffffffffffffffffffffffffff166108fc869081150290604051600060405180830381858888f1935050505015801561090d573d6000803e3d6000fd5b50734488ff8476a4d0b79543aef4fb97cdd8c997c14073ffffffffffffffffffffffffffffffffffffffff166108fc859081150290604051600060405180830381858888f19350505050158015610968573d6000803e3d6000fd5b5073c7888869db92614f4abfb0eacc217e10861915d673ffffffffffffffffffffffffffffffffffffffff166108fc849081150290604051600060405180830381858888f193505050501580156109c3573d6000803e3d6000fd5b507389d003cd34c79859d32a56b2228188faf5d0583b73ffffffffffffffffffffffffffffffffffffffff166108fc839081150290604051600060405180830381858888f19350505050158015610a1e573d6000803e3d6000fd5b50610a2a8c8c8c611746565b8b73ffffffffffffffffffffffffffffffffffffffff166108fc829081150290604051600060405180830381858888f19350505050158015610a70573d6000803e3d6000fd5b50505050505050505050505050565b600260009054906101000a900473ffffffffffffffffffffffffffffffffffffffff1673ffffffffffffffffffffffffffffffffffffffff163373ffffffffffffffffffffffffffffffffffffffff1614610b0f576040517f08c379a0000000000000000000000000000000000000000000000000000000008152600401610b069061248e565b60405180910390fd5b600073ffffffffffffffffffffffffffffffffffffffff168273ffffffffffffffffffffffffffffffffffffffff1603610b7e576040517f08c379a0000000000000000000000000000000000000000000000000000000008152600401610b75906124fa565b60405180910390fd5b60005b8151811015610d67576000828281518110610b9f57610b9e61251a565b5b60200260200101519050610bb281611543565b15610bf2576040517f08c379a0000000000000000000000000000000000000000000000000000000008152600401610be990612595565b60405180910390fd5b610bfe600085836119ac565b6001600460008673ffffffffffffffffffffffffffffffffffffffff1673ffffffffffffffffffffffffffffffffffffffff1681526020019081526020016000206000828254610c4e91906123da565b92505081905550836003600083815260200190815260200160002060006101000a81548173ffffffffffffffffffffffffffffffffffffffff021916908373ffffffffffffffffffffffffffffffffffffffff160217905550808473ffffffffffffffffffffffffffffffffffffffff16600073ffffffffffffffffffffffffffffffffffffffff167fddf252ad1be2c89b69c2b068fc378daa952ba7f163c4a11628f55a4df523b3ef60405160405180910390a4808473ffffffffffffffffffffffffffffffffffffffff167f0f6798a560793a54c3bcfe86a93cde1e73087d944c0ea20544137d412139688560405160405180910390a3610d53600085836119b1565b508080610d5f906125b5565b915050610b81565b505050565b6000806003600084815260200190815260200160002060009054906101000a900473ffffffffffffffffffffffffffffffffffffffff169050600073ffffffffffffffffffffffffffffffffffffffff168173ffffffffffffffffffffffffffffffffffffffff1603610e14576040517f08c379a0000000000000000000000000000000000000000000000000000000008152600401610e0b90612649565b60405180910390fd5b80915050919050565b60008073ffffffffffffffffffffffffffffffffffffffff168273ffffffffffffffffffffffffffffffffffffffff1603610e8d576040517f08c379a0000000000000000000000000000000000000000000000000000000008152600401610e84906126db565b60405180910390fd5b600460008373ffffffffffffffffffffffffffffffffffffffff1673ffffffffffffffffffffffffffffffffffffffff168152602001908152602001600020549050919050565b600260009054906101000a900473ffffffffffffffffffffffffffffffffffffffff1681565b60018054610f079061202a565b80601f0160208091040260200160405190810160405280929190818152602001828054610f339061202a565b8015610f805780601f10610f5557610100808354040283529160200191610f80565b820191906000526020600020905b815481529060010190602001808311610f6357829003601f168201915b505050505081565b3373ffffffffffffffffffffffffffffffffffffffff168273ffffffffffffffffffffffffffffffffffffffff1603610ff6576040517f08c379a0000000000000000000000000000000000000000000000000000000008152600401610fed90612747565b60405180910390fd5b80600660003373ffffffffffffffffffffffffffffffffffffffff1673ffffffffffffffffffffffffffffffffffffffff16815260200190815260200160002060008473ffffffffffffffffffffffffffffffffffffffff1673ffffffffffffffffffffffffffffffffffffffff16815260200190815260200160002060006101000a81548160ff0219169083151502179055508173ffffffffffffffffffffffffffffffffffffffff163373ffffffffffffffffffffffffffffffffffffffff167f17307eab39ab6107e8899845ad3d59bd9653f200f220920489ca2b5937696c31836040516110e79190611fe0565b60405180910390a35050565b60606110fe82611543565b61113d576040517f08c379a0000000000000000000000000000000000000000000000000000000008152600401611134906127b3565b60405180910390fd5b60076000838152602001908152602001600020805461115b9061202a565b80601f01602080910402602001604051908101604052809291908181526020018280546111879061202a565b80156111d45780601f106111a9576101008083540402835291602001916111d4565b820191906000526020600020905b8154815290600101906020018083116111b757829003601f168201915b50505050509050919050565b600260009054906101000a900473ffffffffffffffffffffffffffffffffffffffff1673ffffffffffffffffffffffffffffffffffffffff163373ffffffffffffffffffffffffffffffffffffffff1614611270576040517f08c379a00000000000000000000000000000000000000000000000000000000081526004016112679061248e565b60405180910390fd5b600073ffffffffffffffffffffffffffffffffffffffff168373ffffffffffffffffffffffffffffffffffffffff16036112df576040517f08c379a00000000000000000000000000000000000000000000000000000000081526004016112d6906124fa565b60405180910390fd5b6112e882611543565b15611328576040517f08c379a000000000000000000000000000000000000000000000000000000000815260040161131f90612595565b60405180910390fd5b611334600084846119ac565b6001600460008573ffffffffffffffffffffffffffffffffffffffff1673ffffffffffffffffffffffffffffffffffffffff168152602001908152602001600020600082825461138491906123da565b92505081905550826003600084815260200190815260200160002060006101000a81548173ffffffffffffffffffffffffffffffffffffffff021916908373ffffffffffffffffffffffffffffffffffffffff160217905550806007600084815260200190815260200160002090816113fd919061297f565b50818373ffffffffffffffffffffffffffffffffffffffff16600073ffffffffffffffffffffffffffffffffffffffff167fddf252ad1be2c89b69c2b068fc378daa952ba7f163c4a11628f55a4df523b3ef60405160405180910390a4818373ffffffffffffffffffffffffffffffffffffffff167f0f6798a560793a54c3bcfe86a93cde1e73087d944c0ea20544137d412139688560405160405180910390a36114aa600084846119b1565b505050565b6000600660008473ffffffffffffffffffffffffffffffffffffffff1673ffffffffffffffffffffffffffffffffffffffff16815260200190815260200160002060008373ffffffffffffffffffffffffffffffffffffffff1673ffffffffffffffffffffffffffffffffffffffff16815260200190815260200160002060009054906101000a900460ff16905092915050565b60008073ffffffffffffffffffffffffffffffffffffffff166003600084815260200190815260200160002060009054906101000a900473ffffffffffffffffffffffffffffffffffffffff1673ffffffffffffffffffffffffffffffffffffffff1614159050919050565b816005600083815260200190815260200160002060006101000a81548173ffffffffffffffffffffffffffffffffffffffff021916908373ffffffffffffffffffffffffffffffffffffffff160217905550808273ffffffffffffffffffffffffffffffffffffffff1661162283610d6c565b73ffffffffffffffffffffffffffffffffffffffff167f8c5be1e5ebec7d5bd14f71427d1e84f3dd0314c0f7b2291e5b200ac8c7c3b92560405160405180910390a45050565b600061167382611543565b6116b2576040517f08c379a00000000000000000000000000000000000000000000000000000000081526004016116a9906120a7565b60405180910390fd5b60006116bd83610d6c565b90508073ffffffffffffffffffffffffffffffffffffffff168473ffffffffffffffffffffffffffffffffffffffff16148061172c57508373ffffffffffffffffffffffffffffffffffffffff16611714846103c7565b73ffffffffffffffffffffffffffffffffffffffff16145b8061173d575061173c81856114af565b5b91505092915050565b8273ffffffffffffffffffffffffffffffffffffffff1661176682610d6c565b73ffffffffffffffffffffffffffffffffffffffff16146117bc576040517f08c379a00000000000000000000000000000000000000000000000000000000081526004016117b390612ac3565b60405180910390fd5b600073ffffffffffffffffffffffffffffffffffffffff168273ffffffffffffffffffffffffffffffffffffffff160361182b576040517f08c379a0000000000000000000000000000000000000000000000000000000008152600401611822906122e9565b60405180910390fd5b6118368383836119ac565b6118416000826115af565b6001600460008573ffffffffffffffffffffffffffffffffffffffff1673ffffffffffffffffffffffffffffffffffffffff1681526020019081526020016000206000828254611891919061240e565b925050819055506001600460008473ffffffffffffffffffffffffffffffffffffffff1673ffffffffffffffffffffffffffffffffffffffff16815260200190815260200160002060008282546118e891906123da565b92505081905550816003600083815260200190815260200160002060006101000a81548173ffffffffffffffffffffffffffffffffffffffff021916908373ffffffffffffffffffffffffffffffffffffffff160217905550808273ffffffffffffffffffffffffffffffffffffffff168473ffffffffffffffffffffffffffffffffffffffff167fddf252ad1be2c89b69c2b068fc378daa952ba7f163c4a11628f55a4df523b3ef60405160405180910390a46119a78383836119b1565b505050565b505050565b505050565b600081519050919050565b600082825260208201905092915050565b60005b838110156119f05780820151818401526020810190506119d5565b60008484015250505050565b6000601f19601f8301169050919050565b6000611a18826119b6565b611a2281856119c1565b9350611a328185602086016119d2565b611a3b816119fc565b840191505092915050565b60006020820190508181036000830152611a608184611a0d565b905092915050565b6000604051905090565b600080fd5b600080fd5b6000819050919050565b611a8f81611a7c565b8114611a9a57600080fd5b50565b600081359050611aac81611a86565b92915050565b600060208284031215611ac857611ac7611a72565b5b6000611ad684828501611a9d565b91505092915050565b600073ffffffffffffffffffffffffffffffffffffffff82169050919050565b6000611b0a82611adf565b9050919050565b611b1a81611aff565b82525050565b6000602082019050611b356000830184611b11565b92915050565b611b4481611aff565b8114611b4f57600080fd5b50565b600081359050611b6181611b3b565b92915050565b60008060408385031215611b7e57611b7d611a72565b5b6000611b8c85828601611b52565b9250506020611b9d85828601611a9d565b9150509250929050565b600080600060608486031215611bc057611bbf611a72565b5b6000611bce86828701611b52565b9350506020611bdf86828701611b52565b9250506040611bf086828701611a9d565b9150509250925092565b600080fd5b7f4e487b7100000000000000000000000000000000000000000000000000000000600052604160045260246000fd5b611c37826119fc565b810181811067ffffffffffffffff82111715611c5657611c55611bff565b5b80604052505050565b6000611c69611a68565b9050611c758282611c2e565b919050565b600067ffffffffffffffff821115611c9557611c94611bff565b5b602082029050602081019050919050565b600080fd5b6000611cbe611cb984611c7a565b611c5f565b90508083825260208201905060208402830185811115611ce157611ce0611ca6565b5b835b81811015611d0a5780611cf68882611a9d565b845260208401935050602081019050611ce3565b5050509392505050565b600082601f830112611d2957611d28611bfa565b5b8135611d39848260208601611cab565b91505092915050565b60008060408385031215611d5957611d58611a72565b5b6000611d6785828601611b52565b925050602083013567ffffffffffffffff811115611d8857611d87611a77565b5b611d9485828601611d14565b9150509250929050565b600060208284031215611db457611db3611a72565b5b6000611dc284828501611b52565b91505092915050565b611dd481611a7c565b82525050565b6000602082019050611def6000830184611dcb565b92915050565b60008115159050919050565b611e0a81611df5565b8114611e1557600080fd5b50565b600081359050611e2781611e01565b92915050565b60008060408385031215611e4457611e43611a72565b5b6000611e5285828601611b52565b9250506020611e6385828601611e18565b9150509250929050565b600080fd5b600067ffffffffffffffff821115611e8d57611e8c611bff565b5b611e96826119fc565b9050602081019050919050565b82818337600083830152505050565b6000611ec5611ec084611e72565b611c5f565b905082815260208101848484011115611ee157611ee0611e6d565b5b611eec848285611ea3565b509392505050565b600082601f830112611f0957611f08611bfa565b5b8135611f19848260208601611eb2565b91505092915050565b600080600060608486031215611f3b57611f3a611a72565b5b6000611f4986828701611b52565b9350506020611f5a86828701611a9d565b925050604084013567ffffffffffffffff811115611f7b57611f7a611a77565b5b611f8786828701611ef4565b9150509250925092565b60008060408385031215611fa857611fa7611a72565b5b6000611fb685828601611b52565b9250506020611fc785828601611b52565b9150509250929050565b611fda81611df5565b82525050565b6000602082019050611ff56000830184611fd1565b92915050565b7f4e487b7100000000000000000000000000000000000000000000000000000000600052602260045260246000fd5b6000600282049050600182168061204257607f821691505b60208210810361205557612054611ffb565b5b50919050565b7f546f6b656e20646f6573206e6f74206578697374000000000000000000000000600082015250565b60006120916014836119c1565b915061209c8261205b565b602082019050919050565b600060208201905081810360008301526120c081612084565b9050919050565b7f417070726f76616c20746f2063757272656e74206f776e657200000000000000600082015250565b60006120fd6019836119c1565b9150612108826120c7565b602082019050919050565b6000602082019050818103600083015261212c816120f0565b9050919050565b7f417070726f76652063616c6c6572206973206e6f74206f776e6572206e6f722060008201527f617070726f76656420666f7220616c6c00000000000000000000000000000000602082015250565b600061218f6030836119c1565b915061219a82612133565b604082019050919050565b600060208201905081810360008301526121be81612182565b9050919050565b7f43616c6c6572206973206e6f74206f776e6572206e6f7220617070726f766564600082015250565b60006121fb6020836119c1565b9150612206826121c5565b602082019050919050565b6000602082019050818103600083015261222a816121ee565b9050919050565b7f5472616e736665722066726f6d20746865207a65726f20616464726573730000600082015250565b6000612267601e836119c1565b915061227282612231565b602082019050919050565b600060208201905081810360008301526122968161225a565b9050919050565b7f5472616e7366657220746f20746865207a65726f206164647265737300000000600082015250565b60006122d3601c836119c1565b91506122de8261229d565b602082019050919050565b60006020820190508181036000830152612302816122c6565b9050919050565b7f4e487b7100000000000000000000000000000000000000000000000000000000600052601160045260246000fd5b600061234382611a7c565b915061234e83611a7c565b925082820261235c81611a7c565b9150828204841483151761237357612372612309565b5b5092915050565b7f4e487b7100000000000000000000000000000000000000000000000000000000600052601260045260246000fd5b60006123b482611a7c565b91506123bf83611a7c565b9250826123cf576123ce61237a565b5b828204905092915050565b60006123e582611a7c565b91506123f083611a7c565b925082820190508082111561240857612407612309565b5b92915050565b600061241982611a7c565b915061242483611a7c565b925082820390508181111561243c5761243b612309565b5b92915050565b7f43616c6c6572206973206e6f7420746865206f776e6572000000000000000000600082015250565b60006124786017836119c1565b915061248382612442565b602082019050919050565b600060208201905081810360008301526124a78161246b565b9050919050565b7f4d696e7420746f20746865207a65726f20616464726573730000000000000000600082015250565b60006124e46018836119c1565b91506124ef826124ae565b602082019050919050565b60006020820190508181036000830152612513816124d7565b9050919050565b7f4e487b7100000000000000000000000000000000000000000000000000000000600052603260045260246000fd5b7f546f6b656e20616c7265616479206d696e746564000000000000000000000000600082015250565b600061257f6014836119c1565b915061258a82612549565b602082019050919050565b600060208201905081810360008301526125ae81612572565b9050919050565b60006125c082611a7c565b91507fffffffffffffffffffffffffffffffffffffffffffffffffffffffffffffffff82036125f2576125f1612309565b5b600182019050919050565b7f546f6b656e20494420646f6573206e6f74206578697374000000000000000000600082015250565b60006126336017836119c1565b915061263e826125fd565b602082019050919050565b6000602082019050818103600083015261266281612626565b9050919050565b7f41646472657373207a65726f206973206e6f7420612076616c6964206f776e6560008201527f7200000000000000000000000000000000000000000000000000000000000000602082015250565b60006126c56021836119c1565b91506126d082612669565b604082019050919050565b600060208201905081810360008301526126f4816126b8565b9050919050565b7f417070726f766520746f2063616c6c6572000000000000000000000000000000600082015250565b60006127316011836119c1565b915061273c826126fb565b602082019050919050565b6000602082019050818103600083015261276081612724565b9050919050565b7f55524920717565727920666f72206e6f6e6578697374656e7420746f6b656e00600082015250565b600061279d601f836119c1565b91506127a882612767565b602082019050919050565b600060208201905081810360008301526127cc81612790565b9050919050565b60008190508160005260206000209050919050565b60006020601f8301049050919050565b600082821b905092915050565b6000600883026128357fffffffffffffffffffffffffffffffffffffffffffffffffffffffffffffffff826127f8565b61283f86836127f8565b95508019841693508086168417925050509392505050565b6000819050919050565b600061287c61287761287284611a7c565b612857565b611a7c565b9050919050565b6000819050919050565b61289683612861565b6128aa6128a282612883565b848454612805565b825550505050565b600090565b6128bf6128b2565b6128ca81848461288d565b505050565b5b818110156128ee576128e36000826128b7565b6001810190506128d0565b5050565b601f82111561293357612904816127d3565b61290d846127e8565b8101602085101561291c578190505b612930612928856127e8565b8301826128cf565b50505b505050565b600082821c905092915050565b600061295660001984600802612938565b1980831691505092915050565b600061296f8383612945565b9150826002028217905092915050565b612988826119b6565b67ffffffffffffffff8111156129a1576129a0611bff565b5b6129ab825461202a565b6129b68282856128f2565b600060209050601f8311600181146129e957600084156129d7578287015190505b6129e18582612963565b865550612a49565b601f1984166129f7866127d3565b60005b82811015612a1f578489015182556001820191506020850194506020810190506129fa565b86831015612a3c5784890151612a38601f891682612945565b8355505b6001600288020188555050505b505050505050565b7f5472616e73666572206f6620746f6b656e2074686174206973206e6f74206f7760008201527f6e00000000000000000000000000000000000000000000000000000000000000602082015250565b6000612aad6021836119c1565b9150612ab882612a51565b604082019050919050565b60006020820190508181036000830152612adc81612aa0565b905091905056fea26469706673582212204eeb09ab12add55aaad9f02199caff6217014ab5a372be54b7a22bd6ded1416964736f6c63430008140033",
  "linkReferences": {},
  "deployedLinkReferences": {}
}