{
  "_format": "hh-sol-artifact-1",
  "contractName": "NFT",
  "sourceName": "src/contracts/NFT.sol",
  "abi": [
    {
      "inputs": [],
      "stateMutability": "nonpayable",
      "type": "constructor"
    },
    {
      "anonymous": false,
      "inputs": [
        {
          "indexed": true,
          "internalType": "address",
          "name": "owner",
          "type": "address"
        },
        {
          "indexed": true,
          "internalType": "address",
          "name": "approved",
          "type": "address"
        },
        {
          "indexed": true,
          "internalType": "uint256",
          "name": "tokenId",
          "type": "uint256"
        }
      ],
      "name": "Approval",
      "type": "event"
    },
    {
      "anonymous": false,
      "inputs": [
        {
          "indexed": true,
          "internalType": "address",
          "name": "owner",
          "type": "address"
        },
        {
          "indexed": true,
          "internalType": "address",
          "name": "operator",
          "type": "address"
        },
        {
          "indexed": false,
          "internalType": "bool",
          "name": "approved",
          "type": "bool"
        }
      ],
      "name": "ApprovalForAll",
      "type": "event"
    },
    {
      "anonymous": false,
      "inputs": [
        {
          "indexed": false,
          "internalType": "uint256",
          "name": "_fromTokenId",
          "type": "uint256"
        },
        {
          "indexed": false,
          "internalType": "uint256",
          "name": "_toTokenId",
          "type": "uint256"
        }
      ],
      "name": "BatchMetadataUpdate",
      "type": "event"
    },
    {
      "anonymous": false,
      "inputs": [
        {
          "indexed": false,
          "internalType": "uint256",
          "name": "_tokenId",
          "type": "uint256"
        }
      ],
      "name": "MetadataUpdate",
      "type": "event"
    },
    {
      "anonymous": false,
      "inputs": [
        {
          "indexed": true,
          "internalType": "uint256",
          "name": "tokenId",
          "type": "uint256"
        },
        {
          "indexed": true,
          "internalType": "address",
          "name": "owner",
          "type": "address"
        },
        {
          "indexed": false,
          "internalType": "string",
          "name": "tokenURI",
          "type": "string"
        }
      ],
      "name": "NFTMinted",
      "type": "event"
    },
    {
      "anonymous": false,
      "inputs": [
        {
          "indexed": true,
          "internalType": "uint256",
          "name": "tokenId",
          "type": "uint256"
        },
        {
          "indexed": true,
          "internalType": "address",
          "name": "from",
          "type": "address"
        },
        {
          "indexed": true,
          "internalType": "address",
          "name": "to",
          "type": "address"
        }
      ],
      "name": "NFTTransferred",
      "type": "event"
    },
    {
      "anonymous": false,
      "inputs": [
        {
          "indexed": true,
          "internalType": "address",
          "name": "from",
          "type": "address"
        },
        {
          "indexed": true,
          "internalType": "address",
          "name": "to",
          "type": "address"
        },
        {
          "indexed": true,
          "internalType": "uint256",
          "name": "tokenId",
          "type": "uint256"
        }
      ],
      "name": "Transfer",
      "type": "event"
    },
    {
      "inputs": [
        {
          "internalType": "address",
          "name": "to",
          "type": "address"
        },
        {
          "internalType": "uint256",
          "name": "tokenId",
          "type": "uint256"
        }
      ],
      "name": "approve",
      "outputs": [],
      "stateMutability": "nonpayable",
      "type": "function"
    },
    {
      "inputs": [
        {
          "internalType": "address",
          "name": "owner",
          "type": "address"
        }
      ],
      "name": "balanceOf",
      "outputs": [
        {
          "internalType": "uint256",
          "name": "",
          "type": "uint256"
        }
      ],
      "stateMutability": "view",
      "type": "function"
    },
    {
      "inputs": [
        {
          "internalType": "uint256",
          "name": "tokenId",
          "type": "uint256"
        }
      ],
      "name": "getApproved",
      "outputs": [
        {
          "internalType": "address",
          "name": "",
          "type": "address"
        }
      ],
      "stateMutability": "view",
      "type": "function"
    },
    {
      "inputs": [
        {
          "internalType": "address",
          "name": "owner",
          "type": "address"
        },
        {
          "internalType": "address",
          "name": "operator",
          "type": "address"
        }
      ],
      "name": "isApprovedForAll",
      "outputs": [
        {
          "internalType": "bool",
          "name": "",
          "type": "bool"
        }
      ],
      "stateMutability": "view",
      "type": "function"
    },
    {
      "inputs": [
        {
          "internalType": "address",
          "name": "recipient",
          "type": "address"
        },
        {
          "internalType": "string",
          "name": "tokenURI",
          "type": "string"
        }
      ],
      "name": "mintNFT",
      "outputs": [
        {
          "internalType": "uint256",
          "name": "",
          "type": "uint256"
        }
      ],
      "stateMutability": "nonpayable",
      "type": "function"
    },
    {
      "inputs": [],
      "name": "name",
      "outputs": [
        {
          "internalType": "string",
          "name": "",
          "type": "string"
        }
      ],
      "stateMutability": "view",
      "type": "function"
    },
    {
      "inputs": [
        {
          "internalType": "uint256",
          "name": "tokenId",
          "type": "uint256"
        }
      ],
      "name": "ownerOf",
      "outputs": [
        {
          "internalType": "address",
          "name": "",
          "type": "address"
        }
      ],
      "stateMutability": "view",
      "type": "function"
    },
    {
      "inputs": [
        {
          "internalType": "address",
          "name": "from",
          "type": "address"
        },
        {
          "internalType": "address",
          "name": "to",
          "type": "address"
        },
        {
          "internalType": "uint256",
          "name": "tokenId",
          "type": "uint256"
        }
      ],
      "name": "safeTransferFrom",
      "outputs": [],
      "stateMutability": "nonpayable",
      "type": "function"
    },
    {
      "inputs": [
        {
          "internalType": "address",
          "name": "from",
          "type": "address"
        },
        {
          "internalType": "address",
          "name": "to",
          "type": "address"
        },
        {
          "internalType": "uint256",
          "name": "tokenId",
          "type": "uint256"
        },
        {
          "internalType": "bytes",
          "name": "data",
          "type": "bytes"
        }
      ],
      "name": "safeTransferFrom",
      "outputs": [],
      "stateMutability": "nonpayable",
      "type": "function"
    },
    {
      "inputs": [
        {
          "internalType": "address",
          "name": "operator",
          "type": "address"
        },
        {
          "internalType": "bool",
          "name": "approved",
          "type": "bool"
        }
      ],
      "name": "setApprovalForAll",
      "outputs": [],
      "stateMutability": "nonpayable",
      "type": "function"
    },
    {
      "inputs": [
        {
          "internalType": "bytes4",
          "name": "interfaceId",
          "type": "bytes4"
        }
      ],
      "name": "supportsInterface",
      "outputs": [
        {
          "internalType": "bool",
          "name": "",
          "type": "bool"
        }
      ],
      "stateMutability": "view",
      "type": "function"
    },
    {
      "inputs": [],
      "name": "symbol",
      "outputs": [
        {
          "internalType": "string",
          "name": "",
          "type": "string"
        }
      ],
      "stateMutability": "view",
      "type": "function"
    },
    {
      "inputs": [
        {
          "internalType": "uint256",
          "name": "tokenId",
          "type": "uint256"
        }
      ],
      "name": "tokenURI",
      "outputs": [
        {
          "internalType": "string",
          "name": "",
          "type": "string"
        }
      ],
      "stateMutability": "view",
      "type": "function"
    },
    {
      "inputs": [
        {
          "internalType": "address",
          "name": "from",
          "type": "address"
        },
        {
          "internalType": "address",
          "name": "to",
          "type": "address"
        },
        {
          "internalType": "uint256",
          "name": "tokenId",
          "type": "uint256"
        }
      ],
      "name": "transferFrom",
      "outputs": [],
      "stateMutability": "nonpayable",
      "type": "function"
    }
  ],
  "bytecode": "0x60806040523480156200001157600080fd5b506040518060400160405280600581526020017f4d794e46540000000000000000000000000000000000000000000000000000008152506040518060400160405280600481526020017f4d4e46540000000000000000000000000000000000000000000000000000000081525081600090816200008f91906200032c565b508060019081620000a191906200032c565b505050600160078190555062000413565b600081519050919050565b7f4e487b7100000000000000000000000000000000000000000000000000000000600052604160045260246000fd5b7f4e487b7100000000000000000000000000000000000000000000000000000000600052602260045260246000fd5b600060028204905060018216806200013457607f821691505b6020821081036200014a5762000149620000ec565b5b50919050565b60008190508160005260206000209050919050565b60006020601f8301049050919050565b600082821b905092915050565b600060088302620001b47fffffffffffffffffffffffffffffffffffffffffffffffffffffffffffffffff8262000175565b620001c0868362000175565b95508019841693508086168417925050509392505050565b6000819050919050565b6000819050919050565b60006200020d620002076200020184620001d8565b620001e2565b620001d8565b9050919050565b6000819050919050565b6200022983620001ec565b62000241620002388262000214565b84845462000182565b825550505050565b600090565b6200025862000249565b620002658184846200021e565b505050565b5b818110156200028d57620002816000826200024e565b6001810190506200026b565b5050565b601f821115620002dc57620002a68162000150565b620002b18462000165565b81016020851015620002c1578190505b620002d9620002d08562000165565b8301826200026a565b50505b505050565b600082821c905092915050565b60006200030160001984600802620002e1565b1980831691505092915050565b60006200031c8383620002ee565b9150826002028217905092915050565b6200033782620000b2565b67ffffffffffffffff811115620003535762000352620000bd565b5b6200035f82546200011b565b6200036c82828562000291565b600060209050601f831160018114620003a457600084156200038f578287015190505b6200039b85826200030e565b8655506200040b565b601f198416620003b48662000150565b60005b82811015620003de57848901518255600182019150602085019450602081019050620003b7565b86831015620003fe5784890151620003fa601f891682620002ee565b8355505b6001600288020188555050505b505050505050565b612c8c80620004236000396000f3fe608060405234801561001057600080fd5b50600436106100ea5760003560e01c806370a082311161008c578063b88d4fde11610066578063b88d4fde1461025b578063c87b56dd14610277578063e985e9c5146102a7578063eacabe14146102d7576100ea565b806370a08231146101f157806395d89b4114610221578063a22cb4651461023f576100ea565b8063095ea7b3116100c8578063095ea7b31461016d57806323b872dd1461018957806342842e0e146101a55780636352211e146101c1576100ea565b806301ffc9a7146100ef57806306fdde031461011f578063081812fc1461013d575b600080fd5b61010960048036038101906101049190611b04565b610307565b6040516101169190611b4c565b60405180910390f35b610127610319565b6040516101349190611bf7565b60405180910390f35b61015760048036038101906101529190611c4f565b6103ab565b6040516101649190611cbd565b60405180910390f35b61018760048036038101906101829190611d04565b6103f1565b005b6101a3600480360381019061019e9190611d44565b610508565b005b6101bf60048036038101906101ba9190611d44565b610568565b005b6101db60048036038101906101d69190611c4f565b610588565b6040516101e89190611cbd565b60405180910390f35b61020b60048036038101906102069190611d97565b61060e565b6040516102189190611dd3565b60405180910390f35b6102296106c5565b6040516102369190611bf7565b60405180910390f35b61025960048036038101906102549190611e1a565b610757565b005b61027560048036038101906102709190611f8f565b61076d565b005b610291600480360381019061028c9190611c4f565b6107cf565b60405161029e9190611bf7565b60405180910390f35b6102c160048036038101906102bc9190612012565b6107e1565b6040516102ce9190611b4c565b60405180910390f35b6102f160048036038101906102ec91906120f3565b610875565b6040516102fe9190611dd3565b60405180910390f35b6000610312826108fe565b9050919050565b6060600080546103289061217e565b80601f01602080910402602001604051908101604052809291908181526020018280546103549061217e565b80156103a15780601f10610376576101008083540402835291602001916103a1565b820191906000526020600020905b81548152906001019060200180831161038457829003601f168201915b5050505050905090565b60006103b68261095f565b6004600083815260200190815260200160002060009054906101000a900473ffffffffffffffffffffffffffffffffffffffff169050919050565b60006103fc82610588565b90508073ffffffffffffffffffffffffffffffffffffffff168373ffffffffffffffffffffffffffffffffffffffff160361046c576040517f08c379a000000000000000000000000000000000000000000000000000000000815260040161046390612221565b60405180910390fd5b8073ffffffffffffffffffffffffffffffffffffffff1661048b6109aa565b73ffffffffffffffffffffffffffffffffffffffff1614806104ba57506104b9816104b46109aa565b6107e1565b5b6104f9576040517f08c379a00000000000000000000000000000000000000000000000000000000081526004016104f0906122b3565b60405180910390fd5b61050383836109b2565b505050565b6105196105136109aa565b82610a6b565b610558576040517f08c379a000000000000000000000000000000000000000000000000000000000815260040161054f90612345565b60405180910390fd5b610563838383610b00565b505050565b6105838383836040518060200160405280600081525061076d565b505050565b60008061059483610b6b565b9050600073ffffffffffffffffffffffffffffffffffffffff168173ffffffffffffffffffffffffffffffffffffffff1603610605576040517f08c379a00000000000000000000000000000000000000000000000000000000081526004016105fc906123b1565b60405180910390fd5b80915050919050565b60008073ffffffffffffffffffffffffffffffffffffffff168273ffffffffffffffffffffffffffffffffffffffff160361067e576040517f08c379a000000000000000000000000000000000000000000000000000000000815260040161067590612443565b60405180910390fd5b600360008373ffffffffffffffffffffffffffffffffffffffff1673ffffffffffffffffffffffffffffffffffffffff168152602001908152602001600020549050919050565b6060600180546106d49061217e565b80601f01602080910402602001604051908101604052809291908181526020018280546107009061217e565b801561074d5780601f106107225761010080835404028352916020019161074d565b820191906000526020600020905b81548152906001019060200180831161073057829003601f168201915b5050505050905090565b6107696107626109aa565b8383610ba8565b5050565b61077e6107786109aa565b83610a6b565b6107bd576040517f08c379a00000000000000000000000000000000000000000000000000000000081526004016107b490612345565b60405180910390fd5b6107c984848484610d14565b50505050565b60606107da82610d70565b9050919050565b6000600560008473ffffffffffffffffffffffffffffffffffffffff1673ffffffffffffffffffffffffffffffffffffffff16815260200190815260200160002060008373ffffffffffffffffffffffffffffffffffffffff1673ffffffffffffffffffffffffffffffffffffffff16815260200190815260200160002060009054906101000a900460ff16905092915050565b6000806007600081548092919061088b90612492565b91905055905061089b8482610e82565b6108a58184610ea0565b8373ffffffffffffffffffffffffffffffffffffffff16817f06becd955c918828f6e985541acbf49cc842c9e9bd569fffc7698e721ef13575856040516108ec9190611bf7565b60405180910390a38091505092915050565b6000634906490660e01b7bffffffffffffffffffffffffffffffffffffffffffffffffffffffff1916827bffffffffffffffffffffffffffffffffffffffffffffffffffffffff19161480610958575061095782610f44565b5b9050919050565b61096881611026565b6109a7576040517f08c379a000000000000000000000000000000000000000000000000000000000815260040161099e906123b1565b60405180910390fd5b50565b600033905090565b816004600083815260200190815260200160002060006101000a81548173ffffffffffffffffffffffffffffffffffffffff021916908373ffffffffffffffffffffffffffffffffffffffff160217905550808273ffffffffffffffffffffffffffffffffffffffff16610a2583610588565b73ffffffffffffffffffffffffffffffffffffffff167f8c5be1e5ebec7d5bd14f71427d1e84f3dd0314c0f7b2291e5b200ac8c7c3b92560405160405180910390a45050565b600080610a7783610588565b90508073ffffffffffffffffffffffffffffffffffffffff168473ffffffffffffffffffffffffffffffffffffffff161480610ab95750610ab881856107e1565b5b80610af757508373ffffffffffffffffffffffffffffffffffffffff16610adf846103ab565b73ffffffffffffffffffffffffffffffffffffffff16145b91505092915050565b610b0b838383611067565b8173ffffffffffffffffffffffffffffffffffffffff168373ffffffffffffffffffffffffffffffffffffffff16827f67043fac5fd2bf9edbb46ee495aaed7f97f91d43507d373be2b592af19b8c0a860405160405180910390a4505050565b60006002600083815260200190815260200160002060009054906101000a900473ffffffffffffffffffffffffffffffffffffffff169050919050565b8173ffffffffffffffffffffffffffffffffffffffff168373ffffffffffffffffffffffffffffffffffffffff1603610c16576040517f08c379a0000000000000000000000000000000000000000000000000000000008152600401610c0d90612526565b60405180910390fd5b80600560008573ffffffffffffffffffffffffffffffffffffffff1673ffffffffffffffffffffffffffffffffffffffff16815260200190815260200160002060008473ffffffffffffffffffffffffffffffffffffffff1673ffffffffffffffffffffffffffffffffffffffff16815260200190815260200160002060006101000a81548160ff0219169083151502179055508173ffffffffffffffffffffffffffffffffffffffff168373ffffffffffffffffffffffffffffffffffffffff167f17307eab39ab6107e8899845ad3d59bd9653f200f220920489ca2b5937696c3183604051610d079190611b4c565b60405180910390a3505050565b610d1f848484610b00565b610d2b84848484611360565b610d6a576040517f08c379a0000000000000000000000000000000000000000000000000000000008152600401610d61906125b8565b60405180910390fd5b50505050565b6060610d7b8261095f565b6000600660008481526020019081526020016000208054610d9b9061217e565b80601f0160208091040260200160405190810160405280929190818152602001828054610dc79061217e565b8015610e145780601f10610de957610100808354040283529160200191610e14565b820191906000526020600020905b815481529060010190602001808311610df757829003601f168201915b505050505090506000610e256114e7565b90506000815103610e3a578192505050610e7d565b600082511115610e6f578082604051602001610e57929190612614565b60405160208183030381529060405292505050610e7d565b610e78846114fe565b925050505b919050565b610e9c828260405180602001604052806000815250611566565b5050565b610ea982611026565b610ee8576040517f08c379a0000000000000000000000000000000000000000000000000000000008152600401610edf906126aa565b60405180910390fd5b80600660008481526020019081526020016000209081610f089190612876565b507ff8e1a15aba9398e019f0b49df1a4fde98ee17ae345cb5f6b5e2c27f5033e8ce782604051610f389190611dd3565b60405180910390a15050565b60007f80ac58cd000000000000000000000000000000000000000000000000000000007bffffffffffffffffffffffffffffffffffffffffffffffffffffffff1916827bffffffffffffffffffffffffffffffffffffffffffffffffffffffff1916148061100f57507f5b5e139f000000000000000000000000000000000000000000000000000000007bffffffffffffffffffffffffffffffffffffffffffffffffffffffff1916827bffffffffffffffffffffffffffffffffffffffffffffffffffffffff1916145b8061101f575061101e826115c1565b5b9050919050565b60008073ffffffffffffffffffffffffffffffffffffffff1661104883610b6b565b73ffffffffffffffffffffffffffffffffffffffff1614159050919050565b8273ffffffffffffffffffffffffffffffffffffffff1661108782610588565b73ffffffffffffffffffffffffffffffffffffffff16146110dd576040517f08c379a00000000000000000000000000000000000000000000000000000000081526004016110d4906129ba565b60405180910390fd5b600073ffffffffffffffffffffffffffffffffffffffff168273ffffffffffffffffffffffffffffffffffffffff160361114c576040517f08c379a000000000000000000000000000000000000000000000000000000000815260040161114390612a4c565b60405180910390fd5b611159838383600161162b565b8273ffffffffffffffffffffffffffffffffffffffff1661117982610588565b73ffffffffffffffffffffffffffffffffffffffff16146111cf576040517f08c379a00000000000000000000000000000000000000000000000000000000081526004016111c6906129ba565b60405180910390fd5b6004600082815260200190815260200160002060006101000a81549073ffffffffffffffffffffffffffffffffffffffff02191690556001600360008573ffffffffffffffffffffffffffffffffffffffff1673ffffffffffffffffffffffffffffffffffffffff168152602001908152602001600020600082825403925050819055506001600360008473ffffffffffffffffffffffffffffffffffffffff1673ffffffffffffffffffffffffffffffffffffffff16815260200190815260200160002060008282540192505081905550816002600083815260200190815260200160002060006101000a81548173ffffffffffffffffffffffffffffffffffffffff021916908373ffffffffffffffffffffffffffffffffffffffff160217905550808273ffffffffffffffffffffffffffffffffffffffff168473ffffffffffffffffffffffffffffffffffffffff167fddf252ad1be2c89b69c2b068fc378daa952ba7f163c4a11628f55a4df523b3ef60405160405180910390a461135b8383836001611631565b505050565b60006113818473ffffffffffffffffffffffffffffffffffffffff16611637565b156114da578373ffffffffffffffffffffffffffffffffffffffff1663150b7a026113aa6109aa565b8786866040518563ffffffff1660e01b81526004016113cc9493929190612ac1565b6020604051808303816000875af192505050801561140857506040513d601f19601f820116820180604052508101906114059190612b22565b60015b61148a573d8060008114611438576040519150601f19603f3d011682016040523d82523d6000602084013e61143d565b606091505b506000815103611482576040517f08c379a0000000000000000000000000000000000000000000000000000000008152600401611479906125b8565b60405180910390fd5b805181602001fd5b63150b7a0260e01b7bffffffffffffffffffffffffffffffffffffffffffffffffffffffff1916817bffffffffffffffffffffffffffffffffffffffffffffffffffffffff1916149150506114df565b600190505b949350505050565b606060405180602001604052806000815250905090565b60606115098261095f565b60006115136114e7565b90506000815111611533576040518060200160405280600081525061155e565b8061153d8461165a565b60405160200161154e929190612614565b6040516020818303038152906040525b915050919050565b6115708383611728565b61157d6000848484611360565b6115bc576040517f08c379a00000000000000000000000000000000000000000000000000000000081526004016115b3906125b8565b60405180910390fd5b505050565b60007f01ffc9a7000000000000000000000000000000000000000000000000000000007bffffffffffffffffffffffffffffffffffffffffffffffffffffffff1916827bffffffffffffffffffffffffffffffffffffffffffffffffffffffff1916149050919050565b50505050565b50505050565b6000808273ffffffffffffffffffffffffffffffffffffffff163b119050919050565b60606000600161166984611945565b01905060008167ffffffffffffffff81111561168857611687611e64565b5b6040519080825280601f01601f1916602001820160405280156116ba5781602001600182028036833780820191505090505b509050600082602001820190505b60011561171d578080600190039150507f3031323334353637383961626364656600000000000000000000000000000000600a86061a8153600a858161171157611710612b4f565b5b049450600085036116c8575b819350505050919050565b600073ffffffffffffffffffffffffffffffffffffffff168273ffffffffffffffffffffffffffffffffffffffff1603611797576040517f08c379a000000000000000000000000000000000000000000000000000000000815260040161178e90612bca565b60405180910390fd5b6117a081611026565b156117e0576040517f08c379a00000000000000000000000000000000000000000000000000000000081526004016117d790612c36565b60405180910390fd5b6117ee60008383600161162b565b6117f781611026565b15611837576040517f08c379a000000000000000000000000000000000000000000000000000000000815260040161182e90612c36565b60405180910390fd5b6001600360008473ffffffffffffffffffffffffffffffffffffffff1673ffffffffffffffffffffffffffffffffffffffff16815260200190815260200160002060008282540192505081905550816002600083815260200190815260200160002060006101000a81548173ffffffffffffffffffffffffffffffffffffffff021916908373ffffffffffffffffffffffffffffffffffffffff160217905550808273ffffffffffffffffffffffffffffffffffffffff16600073ffffffffffffffffffffffffffffffffffffffff167fddf252ad1be2c89b69c2b068fc378daa952ba7f163c4a11628f55a4df523b3ef60405160405180910390a4611941600083836001611631565b5050565b600080600090507a184f03e93ff9f4daa797ed6e38ed64bf6a1f01000000000000000083106119a3577a184f03e93ff9f4daa797ed6e38ed64bf6a1f010000000000000000838161199957611998612b4f565b5b0492506040810190505b6d04ee2d6d415b85acef810000000083106119e0576d04ee2d6d415b85acef810000000083816119d6576119d5612b4f565b5b0492506020810190505b662386f26fc100008310611a0f57662386f26fc100008381611a0557611a04612b4f565b5b0492506010810190505b6305f5e1008310611a38576305f5e1008381611a2e57611a2d612b4f565b5b0492506008810190505b6127108310611a5d576127108381611a5357611a52612b4f565b5b0492506004810190505b60648310611a805760648381611a7657611a75612b4f565b5b0492506002810190505b600a8310611a8f576001810190505b80915050919050565b6000604051905090565b600080fd5b600080fd5b60007fffffffff0000000000000000000000000000000000000000000000000000000082169050919050565b611ae181611aac565b8114611aec57600080fd5b50565b600081359050611afe81611ad8565b92915050565b600060208284031215611b1a57611b19611aa2565b5b6000611b2884828501611aef565b91505092915050565b60008115159050919050565b611b4681611b31565b82525050565b6000602082019050611b616000830184611b3d565b92915050565b600081519050919050565b600082825260208201905092915050565b60005b83811015611ba1578082015181840152602081019050611b86565b60008484015250505050565b6000601f19601f8301169050919050565b6000611bc982611b67565b611bd38185611b72565b9350611be3818560208601611b83565b611bec81611bad565b840191505092915050565b60006020820190508181036000830152611c118184611bbe565b905092915050565b6000819050919050565b611c2c81611c19565b8114611c3757600080fd5b50565b600081359050611c4981611c23565b92915050565b600060208284031215611c6557611c64611aa2565b5b6000611c7384828501611c3a565b91505092915050565b600073ffffffffffffffffffffffffffffffffffffffff82169050919050565b6000611ca782611c7c565b9050919050565b611cb781611c9c565b82525050565b6000602082019050611cd26000830184611cae565b92915050565b611ce181611c9c565b8114611cec57600080fd5b50565b600081359050611cfe81611cd8565b92915050565b60008060408385031215611d1b57611d1a611aa2565b5b6000611d2985828601611cef565b9250506020611d3a85828601611c3a565b9150509250929050565b600080600060608486031215611d5d57611d5c611aa2565b5b6000611d6b86828701611cef565b9350506020611d7c86828701611cef565b9250506040611d8d86828701611c3a565b9150509250925092565b600060208284031215611dad57611dac611aa2565b5b6000611dbb84828501611cef565b91505092915050565b611dcd81611c19565b82525050565b6000602082019050611de86000830184611dc4565b92915050565b611df781611b31565b8114611e0257600080fd5b50565b600081359050611e1481611dee565b92915050565b60008060408385031215611e3157611e30611aa2565b5b6000611e3f85828601611cef565b9250506020611e5085828601611e05565b9150509250929050565b600080fd5b600080fd5b7f4e487b7100000000000000000000000000000000000000000000000000000000600052604160045260246000fd5b611e9c82611bad565b810181811067ffffffffffffffff82111715611ebb57611eba611e64565b5b80604052505050565b6000611ece611a98565b9050611eda8282611e93565b919050565b600067ffffffffffffffff821115611efa57611ef9611e64565b5b611f0382611bad565b9050602081019050919050565b82818337600083830152505050565b6000611f32611f2d84611edf565b611ec4565b905082815260208101848484011115611f4e57611f4d611e5f565b5b611f59848285611f10565b509392505050565b600082601f830112611f7657611f75611e5a565b5b8135611f86848260208601611f1f565b91505092915050565b60008060008060808587031215611fa957611fa8611aa2565b5b6000611fb787828801611cef565b9450506020611fc887828801611cef565b9350506040611fd987828801611c3a565b925050606085013567ffffffffffffffff811115611ffa57611ff9611aa7565b5b61200687828801611f61565b91505092959194509250565b6000806040838503121561202957612028611aa2565b5b600061203785828601611cef565b925050602061204885828601611cef565b9150509250929050565b600067ffffffffffffffff82111561206d5761206c611e64565b5b61207682611bad565b9050602081019050919050565b600061209661209184612052565b611ec4565b9050828152602081018484840111156120b2576120b1611e5f565b5b6120bd848285611f10565b509392505050565b600082601f8301126120da576120d9611e5a565b5b81356120ea848260208601612083565b91505092915050565b6000806040838503121561210a57612109611aa2565b5b600061211885828601611cef565b925050602083013567ffffffffffffffff81111561213957612138611aa7565b5b612145858286016120c5565b9150509250929050565b7f4e487b7100000000000000000000000000000000000000000000000000000000600052602260045260246000fd5b6000600282049050600182168061219657607f821691505b6020821081036121a9576121a861214f565b5b50919050565b7f4552433732313a20617070726f76616c20746f2063757272656e74206f776e6560008201527f7200000000000000000000000000000000000000000000000000000000000000602082015250565b600061220b602183611b72565b9150612216826121af565b604082019050919050565b6000602082019050818103600083015261223a816121fe565b9050919050565b7f4552433732313a20617070726f76652063616c6c6572206973206e6f7420746f60008201527f6b656e206f776e6572206f7220617070726f76656420666f7220616c6c000000602082015250565b600061229d603d83611b72565b91506122a882612241565b604082019050919050565b600060208201905081810360008301526122cc81612290565b9050919050565b7f4552433732313a2063616c6c6572206973206e6f7420746f6b656e206f776e6560008201527f72206f7220617070726f76656400000000000000000000000000000000000000602082015250565b600061232f602d83611b72565b915061233a826122d3565b604082019050919050565b6000602082019050818103600083015261235e81612322565b9050919050565b7f4552433732313a20696e76616c696420746f6b656e2049440000000000000000600082015250565b600061239b601883611b72565b91506123a682612365565b602082019050919050565b600060208201905081810360008301526123ca8161238e565b9050919050565b7f4552433732313a2061646472657373207a65726f206973206e6f74206120766160008201527f6c6964206f776e65720000000000000000000000000000000000000000000000602082015250565b600061242d602983611b72565b9150612438826123d1565b604082019050919050565b6000602082019050818103600083015261245c81612420565b9050919050565b7f4e487b7100000000000000000000000000000000000000000000000000000000600052601160045260246000fd5b600061249d82611c19565b91507fffffffffffffffffffffffffffffffffffffffffffffffffffffffffffffffff82036124cf576124ce612463565b5b600182019050919050565b7f4552433732313a20617070726f766520746f2063616c6c657200000000000000600082015250565b6000612510601983611b72565b915061251b826124da565b602082019050919050565b6000602082019050818103600083015261253f81612503565b9050919050565b7f4552433732313a207472616e7366657220746f206e6f6e20455243373231526560008201527f63656976657220696d706c656d656e7465720000000000000000000000000000602082015250565b60006125a2603283611b72565b91506125ad82612546565b604082019050919050565b600060208201905081810360008301526125d181612595565b9050919050565b600081905092915050565b60006125ee82611b67565b6125f881856125d8565b9350612608818560208601611b83565b80840191505092915050565b600061262082856125e3565b915061262c82846125e3565b91508190509392505050565b7f45524337323155524953746f726167653a2055524920736574206f66206e6f6e60008201527f6578697374656e7420746f6b656e000000000000000000000000000000000000602082015250565b6000612694602e83611b72565b915061269f82612638565b604082019050919050565b600060208201905081810360008301526126c381612687565b9050919050565b60008190508160005260206000209050919050565b60006020601f8301049050919050565b600082821b905092915050565b60006008830261272c7fffffffffffffffffffffffffffffffffffffffffffffffffffffffffffffffff826126ef565b61273686836126ef565b95508019841693508086168417925050509392505050565b6000819050919050565b600061277361276e61276984611c19565b61274e565b611c19565b9050919050565b6000819050919050565b61278d83612758565b6127a16127998261277a565b8484546126fc565b825550505050565b600090565b6127b66127a9565b6127c1818484612784565b505050565b5b818110156127e5576127da6000826127ae565b6001810190506127c7565b5050565b601f82111561282a576127fb816126ca565b612804846126df565b81016020851015612813578190505b61282761281f856126df565b8301826127c6565b50505b505050565b600082821c905092915050565b600061284d6000198460080261282f565b1980831691505092915050565b6000612866838361283c565b9150826002028217905092915050565b61287f82611b67565b67ffffffffffffffff81111561289857612897611e64565b5b6128a2825461217e565b6128ad8282856127e9565b600060209050601f8311600181146128e057600084156128ce578287015190505b6128d8858261285a565b865550612940565b601f1984166128ee866126ca565b60005b82811015612916578489015182556001820191506020850194506020810190506128f1565b86831015612933578489015161292f601f89168261283c565b8355505b6001600288020188555050505b505050505050565b7f4552433732313a207472616e736665722066726f6d20696e636f72726563742060008201527f6f776e6572000000000000000000000000000000000000000000000000000000602082015250565b60006129a4602583611b72565b91506129af82612948565b604082019050919050565b600060208201905081810360008301526129d381612997565b9050919050565b7f4552433732313a207472616e7366657220746f20746865207a65726f2061646460008201527f7265737300000000000000000000000000000000000000000000000000000000602082015250565b6000612a36602483611b72565b9150612a41826129da565b604082019050919050565b60006020820190508181036000830152612a6581612a29565b9050919050565b600081519050919050565b600082825260208201905092915050565b6000612a9382612a6c565b612a9d8185612a77565b9350612aad818560208601611b83565b612ab681611bad565b840191505092915050565b6000608082019050612ad66000830187611cae565b612ae36020830186611cae565b612af06040830185611dc4565b8181036060830152612b028184612a88565b905095945050505050565b600081519050612b1c81611ad8565b92915050565b600060208284031215612b3857612b37611aa2565b5b6000612b4684828501612b0d565b91505092915050565b7f4e487b7100000000000000000000000000000000000000000000000000000000600052601260045260246000fd5b7f4552433732313a206d696e7420746f20746865207a65726f2061646472657373600082015250565b6000612bb4602083611b72565b9150612bbf82612b7e565b602082019050919050565b60006020820190508181036000830152612be381612ba7565b9050919050565b7f4552433732313a20746f6b656e20616c7265616479206d696e74656400000000600082015250565b6000612c20601c83611b72565b9150612c2b82612bea565b602082019050919050565b60006020820190508181036000830152612c4f81612c13565b905091905056fea264697066735822122074eb401cea35619f996a5318ff31c5ef8721a746056873fb563ad5f1a676646064736f6c63430008140033",
  "linkReferences": {},
  "deployedLinkReferences": {}
}