{
  "_format": "hh-sol-artifact-1",
  "contractName": "NFT",
  "sourceName": "src/contracts/NFT.sol",
  "abi": [
    {
      "inputs": [],
      "stateMutability": "nonpayable",
      "type": "constructor"
    },
    {
      "inputs": [
        {
          "internalType": "address",
          "name": "sender",
          "type": "address"
        },
        {
          "internalType": "uint256",
          "name": "tokenId",
          "type": "uint256"
        },
        {
          "internalType": "address",
          "name": "owner",
          "type": "address"
        }
      ],
      "name": "ERC721IncorrectOwner",
      "type": "error"
    },
    {
      "inputs": [
        {
          "internalType": "address",
          "name": "operator",
          "type": "address"
        },
        {
          "internalType": "uint256",
          "name": "tokenId",
          "type": "uint256"
        }
      ],
      "name": "ERC721InsufficientApproval",
      "type": "error"
    },
    {
      "inputs": [
        {
          "internalType": "address",
          "name": "approver",
          "type": "address"
        }
      ],
      "name": "ERC721InvalidApprover",
      "type": "error"
    },
    {
      "inputs": [
        {
          "internalType": "address",
          "name": "operator",
          "type": "address"
        }
      ],
      "name": "ERC721InvalidOperator",
      "type": "error"
    },
    {
      "inputs": [
        {
          "internalType": "address",
          "name": "owner",
          "type": "address"
        }
      ],
      "name": "ERC721InvalidOwner",
      "type": "error"
    },
    {
      "inputs": [
        {
          "internalType": "address",
          "name": "receiver",
          "type": "address"
        }
      ],
      "name": "ERC721InvalidReceiver",
      "type": "error"
    },
    {
      "inputs": [
        {
          "internalType": "address",
          "name": "sender",
          "type": "address"
        }
      ],
      "name": "ERC721InvalidSender",
      "type": "error"
    },
    {
      "inputs": [
        {
          "internalType": "uint256",
          "name": "tokenId",
          "type": "uint256"
        }
      ],
      "name": "ERC721NonexistentToken",
      "type": "error"
    },
    {
      "anonymous": false,
      "inputs": [
        {
          "indexed": true,
          "internalType": "address",
          "name": "owner",
          "type": "address"
        },
        {
          "indexed": true,
          "internalType": "address",
          "name": "approved",
          "type": "address"
        },
        {
          "indexed": true,
          "internalType": "uint256",
          "name": "tokenId",
          "type": "uint256"
        }
      ],
      "name": "Approval",
      "type": "event"
    },
    {
      "anonymous": false,
      "inputs": [
        {
          "indexed": true,
          "internalType": "address",
          "name": "owner",
          "type": "address"
        },
        {
          "indexed": true,
          "internalType": "address",
          "name": "operator",
          "type": "address"
        },
        {
          "indexed": false,
          "internalType": "bool",
          "name": "approved",
          "type": "bool"
        }
      ],
      "name": "ApprovalForAll",
      "type": "event"
    },
    {
      "anonymous": false,
      "inputs": [
        {
          "indexed": false,
          "internalType": "uint256",
          "name": "_fromTokenId",
          "type": "uint256"
        },
        {
          "indexed": false,
          "internalType": "uint256",
          "name": "_toTokenId",
          "type": "uint256"
        }
      ],
      "name": "BatchMetadataUpdate",
      "type": "event"
    },
    {
      "anonymous": false,
      "inputs": [
        {
          "indexed": false,
          "internalType": "uint256",
          "name": "_tokenId",
          "type": "uint256"
        }
      ],
      "name": "MetadataUpdate",
      "type": "event"
    },
    {
      "anonymous": false,
      "inputs": [
        {
          "indexed": true,
          "internalType": "address",
          "name": "from",
          "type": "address"
        },
        {
          "indexed": true,
          "internalType": "address",
          "name": "to",
          "type": "address"
        },
        {
          "indexed": true,
          "internalType": "uint256",
          "name": "tokenId",
          "type": "uint256"
        }
      ],
      "name": "Transfer",
      "type": "event"
    },
    {
      "inputs": [
        {
          "internalType": "address",
          "name": "to",
          "type": "address"
        },
        {
          "internalType": "uint256",
          "name": "tokenId",
          "type": "uint256"
        }
      ],
      "name": "approve",
      "outputs": [],
      "stateMutability": "nonpayable",
      "type": "function"
    },
    {
      "inputs": [
        {
          "internalType": "address",
          "name": "owner",
          "type": "address"
        }
      ],
      "name": "balanceOf",
      "outputs": [
        {
          "internalType": "uint256",
          "name": "",
          "type": "uint256"
        }
      ],
      "stateMutability": "view",
      "type": "function"
    },
    {
      "inputs": [
        {
          "internalType": "uint256",
          "name": "tokenId",
          "type": "uint256"
        }
      ],
      "name": "getApproved",
      "outputs": [
        {
          "internalType": "address",
          "name": "",
          "type": "address"
        }
      ],
      "stateMutability": "view",
      "type": "function"
    },
    {
      "inputs": [
        {
          "internalType": "address",
          "name": "owner",
          "type": "address"
        },
        {
          "internalType": "address",
          "name": "operator",
          "type": "address"
        }
      ],
      "name": "isApprovedForAll",
      "outputs": [
        {
          "internalType": "bool",
          "name": "",
          "type": "bool"
        }
      ],
      "stateMutability": "view",
      "type": "function"
    },
    {
      "inputs": [
        {
          "internalType": "address",
          "name": "recipient",
          "type": "address"
        },
        {
          "internalType": "string",
          "name": "_tokenURI",
          "type": "string"
        }
      ],
      "name": "mintNFT",
      "outputs": [
        {
          "internalType": "uint256",
          "name": "",
          "type": "uint256"
        }
      ],
      "stateMutability": "nonpayable",
      "type": "function"
    },
    {
      "inputs": [],
      "name": "name",
      "outputs": [
        {
          "internalType": "string",
          "name": "",
          "type": "string"
        }
      ],
      "stateMutability": "view",
      "type": "function"
    },
    {
      "inputs": [
        {
          "internalType": "uint256",
          "name": "tokenId",
          "type": "uint256"
        }
      ],
      "name": "ownerOf",
      "outputs": [
        {
          "internalType": "address",
          "name": "",
          "type": "address"
        }
      ],
      "stateMutability": "view",
      "type": "function"
    },
    {
      "inputs": [
        {
          "internalType": "address",
          "name": "from",
          "type": "address"
        },
        {
          "internalType": "address",
          "name": "to",
          "type": "address"
        },
        {
          "internalType": "uint256",
          "name": "tokenId",
          "type": "uint256"
        }
      ],
      "name": "safeTransferFrom",
      "outputs": [],
      "stateMutability": "nonpayable",
      "type": "function"
    },
    {
      "inputs": [
        {
          "internalType": "address",
          "name": "from",
          "type": "address"
        },
        {
          "internalType": "address",
          "name": "to",
          "type": "address"
        },
        {
          "internalType": "uint256",
          "name": "tokenId",
          "type": "uint256"
        },
        {
          "internalType": "bytes",
          "name": "data",
          "type": "bytes"
        }
      ],
      "name": "safeTransferFrom",
      "outputs": [],
      "stateMutability": "nonpayable",
      "type": "function"
    },
    {
      "inputs": [
        {
          "internalType": "address",
          "name": "operator",
          "type": "address"
        },
        {
          "internalType": "bool",
          "name": "approved",
          "type": "bool"
        }
      ],
      "name": "setApprovalForAll",
      "outputs": [],
      "stateMutability": "nonpayable",
      "type": "function"
    },
    {
      "inputs": [
        {
          "internalType": "bytes4",
          "name": "interfaceId",
          "type": "bytes4"
        }
      ],
      "name": "supportsInterface",
      "outputs": [
        {
          "internalType": "bool",
          "name": "",
          "type": "bool"
        }
      ],
      "stateMutability": "view",
      "type": "function"
    },
    {
      "inputs": [],
      "name": "symbol",
      "outputs": [
        {
          "internalType": "string",
          "name": "",
          "type": "string"
        }
      ],
      "stateMutability": "view",
      "type": "function"
    },
    {
      "inputs": [
        {
          "internalType": "uint256",
          "name": "tokenId",
          "type": "uint256"
        }
      ],
      "name": "tokenURI",
      "outputs": [
        {
          "internalType": "string",
          "name": "",
          "type": "string"
        }
      ],
      "stateMutability": "view",
      "type": "function"
    },
    {
      "inputs": [
        {
          "internalType": "address",
          "name": "from",
          "type": "address"
        },
        {
          "internalType": "address",
          "name": "to",
          "type": "address"
        },
        {
          "internalType": "uint256",
          "name": "tokenId",
          "type": "uint256"
        }
      ],
      "name": "transferFrom",
      "outputs": [],
      "stateMutability": "nonpayable",
      "type": "function"
    }
  ],
  "bytecode": "0x60806040523480156200001157600080fd5b506040518060400160405280600581526020017f4d794e46540000000000000000000000000000000000000000000000000000008152506040518060400160405280600481526020017f4d4e46540000000000000000000000000000000000000000000000000000000081525081600090816200008f91906200032c565b508060019081620000a191906200032c565b505050600160078190555062000413565b600081519050919050565b7f4e487b7100000000000000000000000000000000000000000000000000000000600052604160045260246000fd5b7f4e487b7100000000000000000000000000000000000000000000000000000000600052602260045260246000fd5b600060028204905060018216806200013457607f821691505b6020821081036200014a5762000149620000ec565b5b50919050565b60008190508160005260206000209050919050565b60006020601f8301049050919050565b600082821b905092915050565b600060088302620001b47fffffffffffffffffffffffffffffffffffffffffffffffffffffffffffffffff8262000175565b620001c0868362000175565b95508019841693508086168417925050509392505050565b6000819050919050565b6000819050919050565b60006200020d620002076200020184620001d8565b620001e2565b620001d8565b9050919050565b6000819050919050565b6200022983620001ec565b62000241620002388262000214565b84845462000182565b825550505050565b600090565b6200025862000249565b620002658184846200021e565b505050565b5b818110156200028d57620002816000826200024e565b6001810190506200026b565b5050565b601f821115620002dc57620002a68162000150565b620002b18462000165565b81016020851015620002c1578190505b620002d9620002d08562000165565b8301826200026a565b50505b505050565b600082821c905092915050565b60006200030160001984600802620002e1565b1980831691505092915050565b60006200031c8383620002ee565b9150826002028217905092915050565b6200033782620000b2565b67ffffffffffffffff811115620003535762000352620000bd565b5b6200035f82546200011b565b6200036c82828562000291565b600060209050601f831160018114620003a457600084156200038f578287015190505b6200039b85826200030e565b8655506200040b565b601f198416620003b48662000150565b60005b82811015620003de57848901518255600182019150602085019450602081019050620003b7565b86831015620003fe5784890151620003fa601f891682620002ee565b8355505b6001600288020188555050505b505050505050565b61241e80620004236000396000f3fe608060405234801561001057600080fd5b50600436106100ea5760003560e01c806370a082311161008c578063b88d4fde11610066578063b88d4fde1461025b578063c87b56dd14610277578063e985e9c5146102a7578063eacabe14146102d7576100ea565b806370a08231146101f157806395d89b4114610221578063a22cb4651461023f576100ea565b8063095ea7b3116100c8578063095ea7b31461016d57806323b872dd1461018957806342842e0e146101a55780636352211e146101c1576100ea565b806301ffc9a7146100ef57806306fdde031461011f578063081812fc1461013d575b600080fd5b61010960048036038101906101049190611876565b610307565b60405161011691906118be565b60405180910390f35b610127610319565b6040516101349190611969565b60405180910390f35b610157600480360381019061015291906119c1565b6103ab565b6040516101649190611a2f565b60405180910390f35b61018760048036038101906101829190611a76565b6103c7565b005b6101a3600480360381019061019e9190611ab6565b6103dd565b005b6101bf60048036038101906101ba9190611ab6565b6104df565b005b6101db60048036038101906101d691906119c1565b6104ff565b6040516101e89190611a2f565b60405180910390f35b61020b60048036038101906102069190611b09565b610511565b6040516102189190611b45565b60405180910390f35b6102296105cb565b6040516102369190611969565b60405180910390f35b61025960048036038101906102549190611b8c565b61065d565b005b61027560048036038101906102709190611d01565b610673565b005b610291600480360381019061028c91906119c1565b610690565b60405161029e9190611969565b60405180910390f35b6102c160048036038101906102bc9190611d84565b6106a2565b6040516102ce91906118be565b60405180910390f35b6102f160048036038101906102ec9190611e65565b610736565b6040516102fe9190611b45565b60405180910390f35b600061031282610774565b9050919050565b60606000805461032890611ef0565b80601f016020809104026020016040519081016040528092919081815260200182805461035490611ef0565b80156103a15780601f10610376576101008083540402835291602001916103a1565b820191906000526020600020905b81548152906001019060200180831161038457829003601f168201915b5050505050905090565b60006103b6826107d5565b506103c08261085d565b9050919050565b6103d982826103d461089a565b6108a2565b5050565b600073ffffffffffffffffffffffffffffffffffffffff168273ffffffffffffffffffffffffffffffffffffffff160361044f5760006040517f64a0ae920000000000000000000000000000000000000000000000000000000081526004016104469190611a2f565b60405180910390fd5b6000610463838361045e61089a565b6108b4565b90508373ffffffffffffffffffffffffffffffffffffffff168173ffffffffffffffffffffffffffffffffffffffff16146104d9578382826040517f64283d7b0000000000000000000000000000000000000000000000000000000081526004016104d093929190611f21565b60405180910390fd5b50505050565b6104fa83838360405180602001604052806000815250610673565b505050565b600061050a826107d5565b9050919050565b60008073ffffffffffffffffffffffffffffffffffffffff168273ffffffffffffffffffffffffffffffffffffffff16036105845760006040517f89c62b6400000000000000000000000000000000000000000000000000000000815260040161057b9190611a2f565b60405180910390fd5b600360008373ffffffffffffffffffffffffffffffffffffffff1673ffffffffffffffffffffffffffffffffffffffff168152602001908152602001600020549050919050565b6060600180546105da90611ef0565b80601f016020809104026020016040519081016040528092919081815260200182805461060690611ef0565b80156106535780601f1061062857610100808354040283529160200191610653565b820191906000526020600020905b81548152906001019060200180831161063657829003601f168201915b5050505050905090565b61066f61066861089a565b8383610ace565b5050565b61067e8484846103dd565b61068a84848484610c3d565b50505050565b606061069b82610df4565b9050919050565b6000600560008473ffffffffffffffffffffffffffffffffffffffff1673ffffffffffffffffffffffffffffffffffffffff16815260200190815260200160002060008373ffffffffffffffffffffffffffffffffffffffff1673ffffffffffffffffffffffffffffffffffffffff16815260200190815260200160002060009054906101000a900460ff16905092915050565b60008060075490506107488482610f07565b6107528184610f25565b6007600081548092919061076590611f87565b91905055508091505092915050565b6000634906490660e01b7bffffffffffffffffffffffffffffffffffffffffffffffffffffffff1916827bffffffffffffffffffffffffffffffffffffffffffffffffffffffff191614806107ce57506107cd82610f81565b5b9050919050565b6000806107e183611063565b9050600073ffffffffffffffffffffffffffffffffffffffff168173ffffffffffffffffffffffffffffffffffffffff160361085457826040517f7e27328900000000000000000000000000000000000000000000000000000000815260040161084b9190611b45565b60405180910390fd5b80915050919050565b60006004600083815260200190815260200160002060009054906101000a900473ffffffffffffffffffffffffffffffffffffffff169050919050565b600033905090565b6108af83838360016110a0565b505050565b6000806108c084611063565b9050600073ffffffffffffffffffffffffffffffffffffffff168373ffffffffffffffffffffffffffffffffffffffff161461090257610901818486611265565b5b600073ffffffffffffffffffffffffffffffffffffffff168173ffffffffffffffffffffffffffffffffffffffff1614610993576109446000856000806110a0565b6001600360008373ffffffffffffffffffffffffffffffffffffffff1673ffffffffffffffffffffffffffffffffffffffff168152602001908152602001600020600082825403925050819055505b600073ffffffffffffffffffffffffffffffffffffffff168573ffffffffffffffffffffffffffffffffffffffff1614610a16576001600360008773ffffffffffffffffffffffffffffffffffffffff1673ffffffffffffffffffffffffffffffffffffffff168152602001908152602001600020600082825401925050819055505b846002600086815260200190815260200160002060006101000a81548173ffffffffffffffffffffffffffffffffffffffff021916908373ffffffffffffffffffffffffffffffffffffffff160217905550838573ffffffffffffffffffffffffffffffffffffffff168273ffffffffffffffffffffffffffffffffffffffff167fddf252ad1be2c89b69c2b068fc378daa952ba7f163c4a11628f55a4df523b3ef60405160405180910390a4809150509392505050565b600073ffffffffffffffffffffffffffffffffffffffff168273ffffffffffffffffffffffffffffffffffffffff1603610b3f57816040517f5b08ba18000000000000000000000000000000000000000000000000000000008152600401610b369190611a2f565b60405180910390fd5b80600560008573ffffffffffffffffffffffffffffffffffffffff1673ffffffffffffffffffffffffffffffffffffffff16815260200190815260200160002060008473ffffffffffffffffffffffffffffffffffffffff1673ffffffffffffffffffffffffffffffffffffffff16815260200190815260200160002060006101000a81548160ff0219169083151502179055508173ffffffffffffffffffffffffffffffffffffffff168373ffffffffffffffffffffffffffffffffffffffff167f17307eab39ab6107e8899845ad3d59bd9653f200f220920489ca2b5937696c3183604051610c3091906118be565b60405180910390a3505050565b60008373ffffffffffffffffffffffffffffffffffffffff163b1115610dee578273ffffffffffffffffffffffffffffffffffffffff1663150b7a02610c8161089a565b8685856040518563ffffffff1660e01b8152600401610ca39493929190612024565b6020604051808303816000875af1925050508015610cdf57506040513d601f19601f82011682018060405250810190610cdc9190612085565b60015b610d63573d8060008114610d0f576040519150601f19603f3d011682016040523d82523d6000602084013e610d14565b606091505b506000815103610d5b57836040517f64a0ae92000000000000000000000000000000000000000000000000000000008152600401610d529190611a2f565b60405180910390fd5b805181602001fd5b63150b7a0260e01b7bffffffffffffffffffffffffffffffffffffffffffffffffffffffff1916817bffffffffffffffffffffffffffffffffffffffffffffffffffffffff191614610dec57836040517f64a0ae92000000000000000000000000000000000000000000000000000000008152600401610de39190611a2f565b60405180910390fd5b505b50505050565b6060610dff826107d5565b506000600660008481526020019081526020016000208054610e2090611ef0565b80601f0160208091040260200160405190810160405280929190818152602001828054610e4c90611ef0565b8015610e995780601f10610e6e57610100808354040283529160200191610e99565b820191906000526020600020905b815481529060010190602001808311610e7c57829003601f168201915b505050505090506000610eaa611329565b90506000815103610ebf578192505050610f02565b600082511115610ef4578082604051602001610edc9291906120ee565b60405160208183030381529060405292505050610f02565b610efd84611340565b925050505b919050565b610f218282604051806020016040528060008152506113a9565b5050565b80600660008481526020019081526020016000209081610f4591906122be565b507ff8e1a15aba9398e019f0b49df1a4fde98ee17ae345cb5f6b5e2c27f5033e8ce782604051610f759190611b45565b60405180910390a15050565b60007f80ac58cd000000000000000000000000000000000000000000000000000000007bffffffffffffffffffffffffffffffffffffffffffffffffffffffff1916827bffffffffffffffffffffffffffffffffffffffffffffffffffffffff1916148061104c57507f5b5e139f000000000000000000000000000000000000000000000000000000007bffffffffffffffffffffffffffffffffffffffffffffffffffffffff1916827bffffffffffffffffffffffffffffffffffffffffffffffffffffffff1916145b8061105c575061105b826113c5565b5b9050919050565b60006002600083815260200190815260200160002060009054906101000a900473ffffffffffffffffffffffffffffffffffffffff169050919050565b80806110d95750600073ffffffffffffffffffffffffffffffffffffffff168273ffffffffffffffffffffffffffffffffffffffff1614155b1561120d5760006110e9846107d5565b9050600073ffffffffffffffffffffffffffffffffffffffff168373ffffffffffffffffffffffffffffffffffffffff161415801561115457508273ffffffffffffffffffffffffffffffffffffffff168173ffffffffffffffffffffffffffffffffffffffff1614155b8015611167575061116581846106a2565b155b156111a957826040517fa9fbf51f0000000000000000000000000000000000000000000000000000000081526004016111a09190611a2f565b60405180910390fd5b811561120b57838573ffffffffffffffffffffffffffffffffffffffff168273ffffffffffffffffffffffffffffffffffffffff167f8c5be1e5ebec7d5bd14f71427d1e84f3dd0314c0f7b2291e5b200ac8c7c3b92560405160405180910390a45b505b836004600085815260200190815260200160002060006101000a81548173ffffffffffffffffffffffffffffffffffffffff021916908373ffffffffffffffffffffffffffffffffffffffff16021790555050505050565b61127083838361142f565b61132457600073ffffffffffffffffffffffffffffffffffffffff168373ffffffffffffffffffffffffffffffffffffffff16036112e557806040517f7e2732890000000000000000000000000000000000000000000000000000000081526004016112dc9190611b45565b60405180910390fd5b81816040517f177e802f00000000000000000000000000000000000000000000000000000000815260040161131b929190612390565b60405180910390fd5b505050565b606060405180602001604052806000815250905090565b606061134b826107d5565b506000611356611329565b9050600081511161137657604051806020016040528060008152506113a1565b80611380846114f0565b6040516020016113919291906120ee565b6040516020818303038152906040525b915050919050565b6113b383836115be565b6113c06000848484610c3d565b505050565b60007f01ffc9a7000000000000000000000000000000000000000000000000000000007bffffffffffffffffffffffffffffffffffffffffffffffffffffffff1916827bffffffffffffffffffffffffffffffffffffffffffffffffffffffff1916149050919050565b60008073ffffffffffffffffffffffffffffffffffffffff168373ffffffffffffffffffffffffffffffffffffffff16141580156114e757508273ffffffffffffffffffffffffffffffffffffffff168473ffffffffffffffffffffffffffffffffffffffff1614806114a857506114a784846106a2565b5b806114e657508273ffffffffffffffffffffffffffffffffffffffff166114ce8361085d565b73ffffffffffffffffffffffffffffffffffffffff16145b5b90509392505050565b6060600060016114ff846116b7565b01905060008167ffffffffffffffff81111561151e5761151d611bd6565b5b6040519080825280601f01601f1916602001820160405280156115505781602001600182028036833780820191505090505b509050600082602001820190505b6001156115b3578080600190039150507f3031323334353637383961626364656600000000000000000000000000000000600a86061a8153600a85816115a7576115a66123b9565b5b0494506000850361155e575b819350505050919050565b600073ffffffffffffffffffffffffffffffffffffffff168273ffffffffffffffffffffffffffffffffffffffff16036116305760006040517f64a0ae920000000000000000000000000000000000000000000000000000000081526004016116279190611a2f565b60405180910390fd5b600061163e838360006108b4565b9050600073ffffffffffffffffffffffffffffffffffffffff168173ffffffffffffffffffffffffffffffffffffffff16146116b25760006040517f73c6ac6e0000000000000000000000000000000000000000000000000000000081526004016116a99190611a2f565b60405180910390fd5b505050565b600080600090507a184f03e93ff9f4daa797ed6e38ed64bf6a1f0100000000000000008310611715577a184f03e93ff9f4daa797ed6e38ed64bf6a1f010000000000000000838161170b5761170a6123b9565b5b0492506040810190505b6d04ee2d6d415b85acef81000000008310611752576d04ee2d6d415b85acef81000000008381611748576117476123b9565b5b0492506020810190505b662386f26fc10000831061178157662386f26fc100008381611777576117766123b9565b5b0492506010810190505b6305f5e10083106117aa576305f5e10083816117a05761179f6123b9565b5b0492506008810190505b61271083106117cf5761271083816117c5576117c46123b9565b5b0492506004810190505b606483106117f257606483816117e8576117e76123b9565b5b0492506002810190505b600a8310611801576001810190505b80915050919050565b6000604051905090565b600080fd5b600080fd5b60007fffffffff0000000000000000000000000000000000000000000000000000000082169050919050565b6118538161181e565b811461185e57600080fd5b50565b6000813590506118708161184a565b92915050565b60006020828403121561188c5761188b611814565b5b600061189a84828501611861565b91505092915050565b60008115159050919050565b6118b8816118a3565b82525050565b60006020820190506118d360008301846118af565b92915050565b600081519050919050565b600082825260208201905092915050565b60005b838110156119135780820151818401526020810190506118f8565b60008484015250505050565b6000601f19601f8301169050919050565b600061193b826118d9565b61194581856118e4565b93506119558185602086016118f5565b61195e8161191f565b840191505092915050565b600060208201905081810360008301526119838184611930565b905092915050565b6000819050919050565b61199e8161198b565b81146119a957600080fd5b50565b6000813590506119bb81611995565b92915050565b6000602082840312156119d7576119d6611814565b5b60006119e5848285016119ac565b91505092915050565b600073ffffffffffffffffffffffffffffffffffffffff82169050919050565b6000611a19826119ee565b9050919050565b611a2981611a0e565b82525050565b6000602082019050611a446000830184611a20565b92915050565b611a5381611a0e565b8114611a5e57600080fd5b50565b600081359050611a7081611a4a565b92915050565b60008060408385031215611a8d57611a8c611814565b5b6000611a9b85828601611a61565b9250506020611aac858286016119ac565b9150509250929050565b600080600060608486031215611acf57611ace611814565b5b6000611add86828701611a61565b9350506020611aee86828701611a61565b9250506040611aff868287016119ac565b9150509250925092565b600060208284031215611b1f57611b1e611814565b5b6000611b2d84828501611a61565b91505092915050565b611b3f8161198b565b82525050565b6000602082019050611b5a6000830184611b36565b92915050565b611b69816118a3565b8114611b7457600080fd5b50565b600081359050611b8681611b60565b92915050565b60008060408385031215611ba357611ba2611814565b5b6000611bb185828601611a61565b9250506020611bc285828601611b77565b9150509250929050565b600080fd5b600080fd5b7f4e487b7100000000000000000000000000000000000000000000000000000000600052604160045260246000fd5b611c0e8261191f565b810181811067ffffffffffffffff82111715611c2d57611c2c611bd6565b5b80604052505050565b6000611c4061180a565b9050611c4c8282611c05565b919050565b600067ffffffffffffffff821115611c6c57611c6b611bd6565b5b611c758261191f565b9050602081019050919050565b82818337600083830152505050565b6000611ca4611c9f84611c51565b611c36565b905082815260208101848484011115611cc057611cbf611bd1565b5b611ccb848285611c82565b509392505050565b600082601f830112611ce857611ce7611bcc565b5b8135611cf8848260208601611c91565b91505092915050565b60008060008060808587031215611d1b57611d1a611814565b5b6000611d2987828801611a61565b9450506020611d3a87828801611a61565b9350506040611d4b878288016119ac565b925050606085013567ffffffffffffffff811115611d6c57611d6b611819565b5b611d7887828801611cd3565b91505092959194509250565b60008060408385031215611d9b57611d9a611814565b5b6000611da985828601611a61565b9250506020611dba85828601611a61565b9150509250929050565b600067ffffffffffffffff821115611ddf57611dde611bd6565b5b611de88261191f565b9050602081019050919050565b6000611e08611e0384611dc4565b611c36565b905082815260208101848484011115611e2457611e23611bd1565b5b611e2f848285611c82565b509392505050565b600082601f830112611e4c57611e4b611bcc565b5b8135611e5c848260208601611df5565b91505092915050565b60008060408385031215611e7c57611e7b611814565b5b6000611e8a85828601611a61565b925050602083013567ffffffffffffffff811115611eab57611eaa611819565b5b611eb785828601611e37565b9150509250929050565b7f4e487b7100000000000000000000000000000000000000000000000000000000600052602260045260246000fd5b60006002820490506001821680611f0857607f821691505b602082108103611f1b57611f1a611ec1565b5b50919050565b6000606082019050611f366000830186611a20565b611f436020830185611b36565b611f506040830184611a20565b949350505050565b7f4e487b7100000000000000000000000000000000000000000000000000000000600052601160045260246000fd5b6000611f928261198b565b91507fffffffffffffffffffffffffffffffffffffffffffffffffffffffffffffffff8203611fc457611fc3611f58565b5b600182019050919050565b600081519050919050565b600082825260208201905092915050565b6000611ff682611fcf565b6120008185611fda565b93506120108185602086016118f5565b6120198161191f565b840191505092915050565b60006080820190506120396000830187611a20565b6120466020830186611a20565b6120536040830185611b36565b81810360608301526120658184611feb565b905095945050505050565b60008151905061207f8161184a565b92915050565b60006020828403121561209b5761209a611814565b5b60006120a984828501612070565b91505092915050565b600081905092915050565b60006120c8826118d9565b6120d281856120b2565b93506120e28185602086016118f5565b80840191505092915050565b60006120fa82856120bd565b915061210682846120bd565b91508190509392505050565b60008190508160005260206000209050919050565b60006020601f8301049050919050565b600082821b905092915050565b6000600883026121747fffffffffffffffffffffffffffffffffffffffffffffffffffffffffffffffff82612137565b61217e8683612137565b95508019841693508086168417925050509392505050565b6000819050919050565b60006121bb6121b66121b18461198b565b612196565b61198b565b9050919050565b6000819050919050565b6121d5836121a0565b6121e96121e1826121c2565b848454612144565b825550505050565b600090565b6121fe6121f1565b6122098184846121cc565b505050565b5b8181101561222d576122226000826121f6565b60018101905061220f565b5050565b601f8211156122725761224381612112565b61224c84612127565b8101602085101561225b578190505b61226f61226785612127565b83018261220e565b50505b505050565b600082821c905092915050565b600061229560001984600802612277565b1980831691505092915050565b60006122ae8383612284565b9150826002028217905092915050565b6122c7826118d9565b67ffffffffffffffff8111156122e0576122df611bd6565b5b6122ea8254611ef0565b6122f5828285612231565b600060209050601f8311600181146123285760008415612316578287015190505b61232085826122a2565b865550612388565b601f19841661233686612112565b60005b8281101561235e57848901518255600182019150602085019450602081019050612339565b8683101561237b5784890151612377601f891682612284565b8355505b6001600288020188555050505b505050505050565b60006040820190506123a56000830185611a20565b6123b26020830184611b36565b9392505050565b7f4e487b7100000000000000000000000000000000000000000000000000000000600052601260045260246000fdfea2646970667358221220f2c176e531cde29702bb1c2b4fbeed9f59582f511312ab31d37de850abe230c764736f6c63430008140033",
  "linkReferences": {},
  "deployedLinkReferences": {}
}