{
  "_format": "hh-sol-artifact-1",
  "contractName": "NFT",
  "sourceName": "src/contracts/NFT.sol",
  "abi": [
    {
      "inputs": [],
      "stateMutability": "nonpayable",
      "type": "constructor"
    },
    {
      "inputs": [
        {
          "internalType": "address",
          "name": "sender",
          "type": "address"
        },
        {
          "internalType": "uint256",
          "name": "tokenId",
          "type": "uint256"
        },
        {
          "internalType": "address",
          "name": "owner",
          "type": "address"
        }
      ],
      "name": "ERC721IncorrectOwner",
      "type": "error"
    },
    {
      "inputs": [
        {
          "internalType": "address",
          "name": "operator",
          "type": "address"
        },
        {
          "internalType": "uint256",
          "name": "tokenId",
          "type": "uint256"
        }
      ],
      "name": "ERC721InsufficientApproval",
      "type": "error"
    },
    {
      "inputs": [
        {
          "internalType": "address",
          "name": "approver",
          "type": "address"
        }
      ],
      "name": "ERC721InvalidApprover",
      "type": "error"
    },
    {
      "inputs": [
        {
          "internalType": "address",
          "name": "operator",
          "type": "address"
        }
      ],
      "name": "ERC721InvalidOperator",
      "type": "error"
    },
    {
      "inputs": [
        {
          "internalType": "address",
          "name": "owner",
          "type": "address"
        }
      ],
      "name": "ERC721InvalidOwner",
      "type": "error"
    },
    {
      "inputs": [
        {
          "internalType": "address",
          "name": "receiver",
          "type": "address"
        }
      ],
      "name": "ERC721InvalidReceiver",
      "type": "error"
    },
    {
      "inputs": [
        {
          "internalType": "address",
          "name": "sender",
          "type": "address"
        }
      ],
      "name": "ERC721InvalidSender",
      "type": "error"
    },
    {
      "inputs": [
        {
          "internalType": "uint256",
          "name": "tokenId",
          "type": "uint256"
        }
      ],
      "name": "ERC721NonexistentToken",
      "type": "error"
    },
    {
      "anonymous": false,
      "inputs": [
        {
          "indexed": true,
          "internalType": "address",
          "name": "owner",
          "type": "address"
        },
        {
          "indexed": true,
          "internalType": "address",
          "name": "approved",
          "type": "address"
        },
        {
          "indexed": true,
          "internalType": "uint256",
          "name": "tokenId",
          "type": "uint256"
        }
      ],
      "name": "Approval",
      "type": "event"
    },
    {
      "anonymous": false,
      "inputs": [
        {
          "indexed": true,
          "internalType": "address",
          "name": "owner",
          "type": "address"
        },
        {
          "indexed": true,
          "internalType": "address",
          "name": "operator",
          "type": "address"
        },
        {
          "indexed": false,
          "internalType": "bool",
          "name": "approved",
          "type": "bool"
        }
      ],
      "name": "ApprovalForAll",
      "type": "event"
    },
    {
      "anonymous": false,
      "inputs": [
        {
          "indexed": true,
          "internalType": "address",
          "name": "from",
          "type": "address"
        },
        {
          "indexed": true,
          "internalType": "address",
          "name": "to",
          "type": "address"
        },
        {
          "indexed": true,
          "internalType": "uint256",
          "name": "tokenId",
          "type": "uint256"
        }
      ],
      "name": "Transfer",
      "type": "event"
    },
    {
      "inputs": [
        {
          "internalType": "address",
          "name": "to",
          "type": "address"
        },
        {
          "internalType": "uint256",
          "name": "tokenId",
          "type": "uint256"
        }
      ],
      "name": "approve",
      "outputs": [],
      "stateMutability": "nonpayable",
      "type": "function"
    },
    {
      "inputs": [
        {
          "internalType": "address",
          "name": "owner",
          "type": "address"
        }
      ],
      "name": "balanceOf",
      "outputs": [
        {
          "internalType": "uint256",
          "name": "",
          "type": "uint256"
        }
      ],
      "stateMutability": "view",
      "type": "function"
    },
    {
      "inputs": [
        {
          "internalType": "address",
          "name": "recipient",
          "type": "address"
        },
        {
          "internalType": "string[]",
          "name": "tokenURIArray",
          "type": "string[]"
        }
      ],
      "name": "batchMintNFT",
      "outputs": [
        {
          "internalType": "uint256[]",
          "name": "",
          "type": "uint256[]"
        }
      ],
      "stateMutability": "nonpayable",
      "type": "function"
    },
    {
      "inputs": [
        {
          "internalType": "uint256",
          "name": "tokenId",
          "type": "uint256"
        }
      ],
      "name": "getApproved",
      "outputs": [
        {
          "internalType": "address",
          "name": "",
          "type": "address"
        }
      ],
      "stateMutability": "view",
      "type": "function"
    },
    {
      "inputs": [
        {
          "internalType": "address",
          "name": "owner",
          "type": "address"
        },
        {
          "internalType": "address",
          "name": "operator",
          "type": "address"
        }
      ],
      "name": "isApprovedForAll",
      "outputs": [
        {
          "internalType": "bool",
          "name": "",
          "type": "bool"
        }
      ],
      "stateMutability": "view",
      "type": "function"
    },
    {
      "inputs": [
        {
          "internalType": "address",
          "name": "recipient",
          "type": "address"
        },
        {
          "internalType": "string",
          "name": "_tokenURI",
          "type": "string"
        }
      ],
      "name": "mintNFT",
      "outputs": [
        {
          "internalType": "uint256",
          "name": "",
          "type": "uint256"
        }
      ],
      "stateMutability": "nonpayable",
      "type": "function"
    },
    {
      "inputs": [],
      "name": "name",
      "outputs": [
        {
          "internalType": "string",
          "name": "",
          "type": "string"
        }
      ],
      "stateMutability": "view",
      "type": "function"
    },
    {
      "inputs": [
        {
          "internalType": "uint256",
          "name": "tokenId",
          "type": "uint256"
        }
      ],
      "name": "ownerOf",
      "outputs": [
        {
          "internalType": "address",
          "name": "",
          "type": "address"
        }
      ],
      "stateMutability": "view",
      "type": "function"
    },
    {
      "inputs": [
        {
          "internalType": "address",
          "name": "from",
          "type": "address"
        },
        {
          "internalType": "address",
          "name": "to",
          "type": "address"
        },
        {
          "internalType": "uint256",
          "name": "tokenId",
          "type": "uint256"
        }
      ],
      "name": "safeTransferFrom",
      "outputs": [],
      "stateMutability": "nonpayable",
      "type": "function"
    },
    {
      "inputs": [
        {
          "internalType": "address",
          "name": "from",
          "type": "address"
        },
        {
          "internalType": "address",
          "name": "to",
          "type": "address"
        },
        {
          "internalType": "uint256",
          "name": "tokenId",
          "type": "uint256"
        },
        {
          "internalType": "bytes",
          "name": "data",
          "type": "bytes"
        }
      ],
      "name": "safeTransferFrom",
      "outputs": [],
      "stateMutability": "nonpayable",
      "type": "function"
    },
    {
      "inputs": [
        {
          "internalType": "address",
          "name": "operator",
          "type": "address"
        },
        {
          "internalType": "bool",
          "name": "approved",
          "type": "bool"
        }
      ],
      "name": "setApprovalForAll",
      "outputs": [],
      "stateMutability": "nonpayable",
      "type": "function"
    },
    {
      "inputs": [
        {
          "internalType": "bytes4",
          "name": "interfaceId",
          "type": "bytes4"
        }
      ],
      "name": "supportsInterface",
      "outputs": [
        {
          "internalType": "bool",
          "name": "",
          "type": "bool"
        }
      ],
      "stateMutability": "view",
      "type": "function"
    },
    {
      "inputs": [],
      "name": "symbol",
      "outputs": [
        {
          "internalType": "string",
          "name": "",
          "type": "string"
        }
      ],
      "stateMutability": "view",
      "type": "function"
    },
    {
      "inputs": [
        {
          "internalType": "uint256",
          "name": "tokenId",
          "type": "uint256"
        }
      ],
      "name": "tokenURI",
      "outputs": [
        {
          "internalType": "string",
          "name": "",
          "type": "string"
        }
      ],
      "stateMutability": "view",
      "type": "function"
    },
    {
      "inputs": [],
      "name": "totalSupply",
      "outputs": [
        {
          "internalType": "uint256",
          "name": "",
          "type": "uint256"
        }
      ],
      "stateMutability": "view",
      "type": "function"
    },
    {
      "inputs": [
        {
          "internalType": "address",
          "name": "from",
          "type": "address"
        },
        {
          "internalType": "address",
          "name": "to",
          "type": "address"
        },
        {
          "internalType": "uint256",
          "name": "tokenId",
          "type": "uint256"
        }
      ],
      "name": "transferFrom",
      "outputs": [],
      "stateMutability": "nonpayable",
      "type": "function"
    }
  ],
  "bytecode": "0x60806040523480156200001157600080fd5b506040518060400160405280600581526020017f4d794e46540000000000000000000000000000000000000000000000000000008152506040518060400160405280600481526020017f4d4e46540000000000000000000000000000000000000000000000000000000081525081600090816200008f91906200032c565b508060019081620000a191906200032c565b505050600060068190555062000413565b600081519050919050565b7f4e487b7100000000000000000000000000000000000000000000000000000000600052604160045260246000fd5b7f4e487b7100000000000000000000000000000000000000000000000000000000600052602260045260246000fd5b600060028204905060018216806200013457607f821691505b6020821081036200014a5762000149620000ec565b5b50919050565b60008190508160005260206000209050919050565b60006020601f8301049050919050565b600082821b905092915050565b600060088302620001b47fffffffffffffffffffffffffffffffffffffffffffffffffffffffffffffffff8262000175565b620001c0868362000175565b95508019841693508086168417925050509392505050565b6000819050919050565b6000819050919050565b60006200020d620002076200020184620001d8565b620001e2565b620001d8565b9050919050565b6000819050919050565b6200022983620001ec565b62000241620002388262000214565b84845462000182565b825550505050565b600090565b6200025862000249565b620002658184846200021e565b505050565b5b818110156200028d57620002816000826200024e565b6001810190506200026b565b5050565b601f821115620002dc57620002a68162000150565b620002b18462000165565b81016020851015620002c1578190505b620002d9620002d08562000165565b8301826200026a565b50505b505050565b600082821c905092915050565b60006200030160001984600802620002e1565b1980831691505092915050565b60006200031c8383620002ee565b9150826002028217905092915050565b6200033782620000b2565b67ffffffffffffffff811115620003535762000352620000bd565b5b6200035f82546200011b565b6200036c82828562000291565b600060209050601f831160018114620003a457600084156200038f578287015190505b6200039b85826200030e565b8655506200040b565b601f198416620003b48662000150565b60005b82811015620003de57848901518255600182019150602085019450602081019050620003b7565b86831015620003fe5784890151620003fa601f891682620002ee565b8355505b6001600288020188555050505b505050505050565b61245780620004236000396000f3fe608060405234801561001057600080fd5b50600436106101005760003560e01c806370a0823111610097578063c87b56dd11610066578063c87b56dd146102ab578063dd2e2303146102db578063e985e9c51461030b578063eacabe141461033b57610100565b806370a082311461022557806395d89b4114610255578063a22cb46514610273578063b88d4fde1461028f57610100565b806318160ddd116100d357806318160ddd1461019f57806323b872dd146101bd57806342842e0e146101d95780636352211e146101f557610100565b806301ffc9a71461010557806306fdde0314610135578063081812fc14610153578063095ea7b314610183575b600080fd5b61011f600480360381019061011a9190611681565b61036b565b60405161012c91906116c9565b60405180910390f35b61013d61044d565b60405161014a9190611774565b60405180910390f35b61016d600480360381019061016891906117cc565b6104df565b60405161017a919061183a565b60405180910390f35b61019d60048036038101906101989190611881565b6104fb565b005b6101a7610511565b6040516101b491906118d0565b60405180910390f35b6101d760048036038101906101d291906118eb565b61051b565b005b6101f360048036038101906101ee91906118eb565b61061d565b005b61020f600480360381019061020a91906117cc565b61063d565b60405161021c919061183a565b60405180910390f35b61023f600480360381019061023a919061193e565b61064f565b60405161024c91906118d0565b60405180910390f35b61025d610709565b60405161026a9190611774565b60405180910390f35b61028d60048036038101906102889190611997565b61079b565b005b6102a960048036038101906102a49190611b0c565b6107b1565b005b6102c560048036038101906102c091906117cc565b6107ce565b6040516102d29190611774565b60405180910390f35b6102f560048036038101906102f09190611d16565b6108ea565b6040516103029190611e30565b60405180910390f35b61032560048036038101906103209190611e52565b6109e9565b60405161033291906116c9565b60405180910390f35b61035560048036038101906103509190611e92565b610a7d565b60405161036291906118d0565b60405180910390f35b60007f80ac58cd000000000000000000000000000000000000000000000000000000007bffffffffffffffffffffffffffffffffffffffffffffffffffffffff1916827bffffffffffffffffffffffffffffffffffffffffffffffffffffffff1916148061043657507f5b5e139f000000000000000000000000000000000000000000000000000000007bffffffffffffffffffffffffffffffffffffffffffffffffffffffff1916827bffffffffffffffffffffffffffffffffffffffffffffffffffffffff1916145b80610446575061044582610ad2565b5b9050919050565b60606000805461045c90611f1d565b80601f016020809104026020016040519081016040528092919081815260200182805461048890611f1d565b80156104d55780601f106104aa576101008083540402835291602001916104d5565b820191906000526020600020905b8154815290600101906020018083116104b857829003601f168201915b5050505050905090565b60006104ea82610b3c565b506104f482610bc4565b9050919050565b61050d8282610508610c01565b610c09565b5050565b6000600654905090565b600073ffffffffffffffffffffffffffffffffffffffff168273ffffffffffffffffffffffffffffffffffffffff160361058d5760006040517f64a0ae92000000000000000000000000000000000000000000000000000000008152600401610584919061183a565b60405180910390fd5b60006105a1838361059c610c01565b610c1b565b90508373ffffffffffffffffffffffffffffffffffffffff168173ffffffffffffffffffffffffffffffffffffffff1614610617578382826040517f64283d7b00000000000000000000000000000000000000000000000000000000815260040161060e93929190611f4e565b60405180910390fd5b50505050565b610638838383604051806020016040528060008152506107b1565b505050565b600061064882610b3c565b9050919050565b60008073ffffffffffffffffffffffffffffffffffffffff168273ffffffffffffffffffffffffffffffffffffffff16036106c25760006040517f89c62b640000000000000000000000000000000000000000000000000000000081526004016106b9919061183a565b60405180910390fd5b600360008373ffffffffffffffffffffffffffffffffffffffff1673ffffffffffffffffffffffffffffffffffffffff168152602001908152602001600020549050919050565b60606001805461071890611f1d565b80601f016020809104026020016040519081016040528092919081815260200182805461074490611f1d565b80156107915780601f1061076657610100808354040283529160200191610791565b820191906000526020600020905b81548152906001019060200180831161077457829003601f168201915b5050505050905090565b6107ad6107a6610c01565b8383610e35565b5050565b6107bc84848461051b565b6107c884848484610fa4565b50505050565b6060600073ffffffffffffffffffffffffffffffffffffffff166107f18361115b565b73ffffffffffffffffffffffffffffffffffffffff1603610847576040517f08c379a000000000000000000000000000000000000000000000000000000000815260040161083e90611fd1565b60405180910390fd5b60076000838152602001908152602001600020805461086590611f1d565b80601f016020809104026020016040519081016040528092919081815260200182805461089190611f1d565b80156108de5780601f106108b3576101008083540402835291602001916108de565b820191906000526020600020905b8154815290600101906020018083116108c157829003601f168201915b50505050509050919050565b60606000825167ffffffffffffffff811115610909576109086119e1565b5b6040519080825280602002602001820160405280156109375781602001602082028036833780820191505090505b50905060005b83518110156109de57600060065490506109578682611198565b84828151811061096a57610969611ff1565b5b602002602001015160076000838152602001908152602001600020908161099191906121cc565b50808383815181106109a6576109a5611ff1565b5b602002602001018181525050600660008154809291906109c5906122cd565b91905055505080806109d6906122cd565b91505061093d565b508091505092915050565b6000600560008473ffffffffffffffffffffffffffffffffffffffff1673ffffffffffffffffffffffffffffffffffffffff16815260200190815260200160002060008373ffffffffffffffffffffffffffffffffffffffff1673ffffffffffffffffffffffffffffffffffffffff16815260200190815260200160002060009054906101000a900460ff16905092915050565b6000806006549050610a8f8482611198565b82600760008381526020019081526020016000209081610aaf91906121cc565b5060066000815480929190610ac3906122cd565b91905055508091505092915050565b60007f01ffc9a7000000000000000000000000000000000000000000000000000000007bffffffffffffffffffffffffffffffffffffffffffffffffffffffff1916827bffffffffffffffffffffffffffffffffffffffffffffffffffffffff1916149050919050565b600080610b488361115b565b9050600073ffffffffffffffffffffffffffffffffffffffff168173ffffffffffffffffffffffffffffffffffffffff1603610bbb57826040517f7e273289000000000000000000000000000000000000000000000000000000008152600401610bb291906118d0565b60405180910390fd5b80915050919050565b60006004600083815260200190815260200160002060009054906101000a900473ffffffffffffffffffffffffffffffffffffffff169050919050565b600033905090565b610c1683838360016111b6565b505050565b600080610c278461115b565b9050600073ffffffffffffffffffffffffffffffffffffffff168373ffffffffffffffffffffffffffffffffffffffff1614610c6957610c6881848661137b565b5b600073ffffffffffffffffffffffffffffffffffffffff168173ffffffffffffffffffffffffffffffffffffffff1614610cfa57610cab6000856000806111b6565b6001600360008373ffffffffffffffffffffffffffffffffffffffff1673ffffffffffffffffffffffffffffffffffffffff168152602001908152602001600020600082825403925050819055505b600073ffffffffffffffffffffffffffffffffffffffff168573ffffffffffffffffffffffffffffffffffffffff1614610d7d576001600360008773ffffffffffffffffffffffffffffffffffffffff1673ffffffffffffffffffffffffffffffffffffffff168152602001908152602001600020600082825401925050819055505b846002600086815260200190815260200160002060006101000a81548173ffffffffffffffffffffffffffffffffffffffff021916908373ffffffffffffffffffffffffffffffffffffffff160217905550838573ffffffffffffffffffffffffffffffffffffffff168273ffffffffffffffffffffffffffffffffffffffff167fddf252ad1be2c89b69c2b068fc378daa952ba7f163c4a11628f55a4df523b3ef60405160405180910390a4809150509392505050565b600073ffffffffffffffffffffffffffffffffffffffff168273ffffffffffffffffffffffffffffffffffffffff1603610ea657816040517f5b08ba18000000000000000000000000000000000000000000000000000000008152600401610e9d919061183a565b60405180910390fd5b80600560008573ffffffffffffffffffffffffffffffffffffffff1673ffffffffffffffffffffffffffffffffffffffff16815260200190815260200160002060008473ffffffffffffffffffffffffffffffffffffffff1673ffffffffffffffffffffffffffffffffffffffff16815260200190815260200160002060006101000a81548160ff0219169083151502179055508173ffffffffffffffffffffffffffffffffffffffff168373ffffffffffffffffffffffffffffffffffffffff167f17307eab39ab6107e8899845ad3d59bd9653f200f220920489ca2b5937696c3183604051610f9791906116c9565b60405180910390a3505050565b60008373ffffffffffffffffffffffffffffffffffffffff163b1115611155578273ffffffffffffffffffffffffffffffffffffffff1663150b7a02610fe8610c01565b8685856040518563ffffffff1660e01b815260040161100a949392919061236a565b6020604051808303816000875af192505050801561104657506040513d601f19601f8201168201806040525081019061104391906123cb565b60015b6110ca573d8060008114611076576040519150601f19603f3d011682016040523d82523d6000602084013e61107b565b606091505b5060008151036110c257836040517f64a0ae920000000000000000000000000000000000000000000000000000000081526004016110b9919061183a565b60405180910390fd5b805181602001fd5b63150b7a0260e01b7bffffffffffffffffffffffffffffffffffffffffffffffffffffffff1916817bffffffffffffffffffffffffffffffffffffffffffffffffffffffff19161461115357836040517f64a0ae9200000000000000000000000000000000000000000000000000000000815260040161114a919061183a565b60405180910390fd5b505b50505050565b60006002600083815260200190815260200160002060009054906101000a900473ffffffffffffffffffffffffffffffffffffffff169050919050565b6111b282826040518060200160405280600081525061143f565b5050565b80806111ef5750600073ffffffffffffffffffffffffffffffffffffffff168273ffffffffffffffffffffffffffffffffffffffff1614155b156113235760006111ff84610b3c565b9050600073ffffffffffffffffffffffffffffffffffffffff168373ffffffffffffffffffffffffffffffffffffffff161415801561126a57508273ffffffffffffffffffffffffffffffffffffffff168173ffffffffffffffffffffffffffffffffffffffff1614155b801561127d575061127b81846109e9565b155b156112bf57826040517fa9fbf51f0000000000000000000000000000000000000000000000000000000081526004016112b6919061183a565b60405180910390fd5b811561132157838573ffffffffffffffffffffffffffffffffffffffff168273ffffffffffffffffffffffffffffffffffffffff167f8c5be1e5ebec7d5bd14f71427d1e84f3dd0314c0f7b2291e5b200ac8c7c3b92560405160405180910390a45b505b836004600085815260200190815260200160002060006101000a81548173ffffffffffffffffffffffffffffffffffffffff021916908373ffffffffffffffffffffffffffffffffffffffff16021790555050505050565b61138683838361145b565b61143a57600073ffffffffffffffffffffffffffffffffffffffff168373ffffffffffffffffffffffffffffffffffffffff16036113fb57806040517f7e2732890000000000000000000000000000000000000000000000000000000081526004016113f291906118d0565b60405180910390fd5b81816040517f177e802f0000000000000000000000000000000000000000000000000000000081526004016114319291906123f8565b60405180910390fd5b505050565b611449838361151c565b6114566000848484610fa4565b505050565b60008073ffffffffffffffffffffffffffffffffffffffff168373ffffffffffffffffffffffffffffffffffffffff161415801561151357508273ffffffffffffffffffffffffffffffffffffffff168473ffffffffffffffffffffffffffffffffffffffff1614806114d457506114d384846109e9565b5b8061151257508273ffffffffffffffffffffffffffffffffffffffff166114fa83610bc4565b73ffffffffffffffffffffffffffffffffffffffff16145b5b90509392505050565b600073ffffffffffffffffffffffffffffffffffffffff168273ffffffffffffffffffffffffffffffffffffffff160361158e5760006040517f64a0ae92000000000000000000000000000000000000000000000000000000008152600401611585919061183a565b60405180910390fd5b600061159c83836000610c1b565b9050600073ffffffffffffffffffffffffffffffffffffffff168173ffffffffffffffffffffffffffffffffffffffff16146116105760006040517f73c6ac6e000000000000000000000000000000000000000000000000000000008152600401611607919061183a565b60405180910390fd5b505050565b6000604051905090565b600080fd5b600080fd5b60007fffffffff0000000000000000000000000000000000000000000000000000000082169050919050565b61165e81611629565b811461166957600080fd5b50565b60008135905061167b81611655565b92915050565b6000602082840312156116975761169661161f565b5b60006116a58482850161166c565b91505092915050565b60008115159050919050565b6116c3816116ae565b82525050565b60006020820190506116de60008301846116ba565b92915050565b600081519050919050565b600082825260208201905092915050565b60005b8381101561171e578082015181840152602081019050611703565b60008484015250505050565b6000601f19601f8301169050919050565b6000611746826116e4565b61175081856116ef565b9350611760818560208601611700565b6117698161172a565b840191505092915050565b6000602082019050818103600083015261178e818461173b565b905092915050565b6000819050919050565b6117a981611796565b81146117b457600080fd5b50565b6000813590506117c6816117a0565b92915050565b6000602082840312156117e2576117e161161f565b5b60006117f0848285016117b7565b91505092915050565b600073ffffffffffffffffffffffffffffffffffffffff82169050919050565b6000611824826117f9565b9050919050565b61183481611819565b82525050565b600060208201905061184f600083018461182b565b92915050565b61185e81611819565b811461186957600080fd5b50565b60008135905061187b81611855565b92915050565b600080604083850312156118985761189761161f565b5b60006118a68582860161186c565b92505060206118b7858286016117b7565b9150509250929050565b6118ca81611796565b82525050565b60006020820190506118e560008301846118c1565b92915050565b6000806000606084860312156119045761190361161f565b5b60006119128682870161186c565b93505060206119238682870161186c565b9250506040611934868287016117b7565b9150509250925092565b6000602082840312156119545761195361161f565b5b60006119628482850161186c565b91505092915050565b611974816116ae565b811461197f57600080fd5b50565b6000813590506119918161196b565b92915050565b600080604083850312156119ae576119ad61161f565b5b60006119bc8582860161186c565b92505060206119cd85828601611982565b9150509250929050565b600080fd5b600080fd5b7f4e487b7100000000000000000000000000000000000000000000000000000000600052604160045260246000fd5b611a198261172a565b810181811067ffffffffffffffff82111715611a3857611a376119e1565b5b80604052505050565b6000611a4b611615565b9050611a578282611a10565b919050565b600067ffffffffffffffff821115611a7757611a766119e1565b5b611a808261172a565b9050602081019050919050565b82818337600083830152505050565b6000611aaf611aaa84611a5c565b611a41565b905082815260208101848484011115611acb57611aca6119dc565b5b611ad6848285611a8d565b509392505050565b600082601f830112611af357611af26119d7565b5b8135611b03848260208601611a9c565b91505092915050565b60008060008060808587031215611b2657611b2561161f565b5b6000611b348782880161186c565b9450506020611b458782880161186c565b9350506040611b56878288016117b7565b925050606085013567ffffffffffffffff811115611b7757611b76611624565b5b611b8387828801611ade565b91505092959194509250565b600067ffffffffffffffff821115611baa57611ba96119e1565b5b602082029050602081019050919050565b600080fd5b600067ffffffffffffffff821115611bdb57611bda6119e1565b5b611be48261172a565b9050602081019050919050565b6000611c04611bff84611bc0565b611a41565b905082815260208101848484011115611c2057611c1f6119dc565b5b611c2b848285611a8d565b509392505050565b600082601f830112611c4857611c476119d7565b5b8135611c58848260208601611bf1565b91505092915050565b6000611c74611c6f84611b8f565b611a41565b90508083825260208201905060208402830185811115611c9757611c96611bbb565b5b835b81811015611cde57803567ffffffffffffffff811115611cbc57611cbb6119d7565b5b808601611cc98982611c33565b85526020850194505050602081019050611c99565b5050509392505050565b600082601f830112611cfd57611cfc6119d7565b5b8135611d0d848260208601611c61565b91505092915050565b60008060408385031215611d2d57611d2c61161f565b5b6000611d3b8582860161186c565b925050602083013567ffffffffffffffff811115611d5c57611d5b611624565b5b611d6885828601611ce8565b9150509250929050565b600081519050919050565b600082825260208201905092915050565b6000819050602082019050919050565b611da781611796565b82525050565b6000611db98383611d9e565b60208301905092915050565b6000602082019050919050565b6000611ddd82611d72565b611de78185611d7d565b9350611df283611d8e565b8060005b83811015611e23578151611e0a8882611dad565b9750611e1583611dc5565b925050600181019050611df6565b5085935050505092915050565b60006020820190508181036000830152611e4a8184611dd2565b905092915050565b60008060408385031215611e6957611e6861161f565b5b6000611e778582860161186c565b9250506020611e888582860161186c565b9150509250929050565b60008060408385031215611ea957611ea861161f565b5b6000611eb78582860161186c565b925050602083013567ffffffffffffffff811115611ed857611ed7611624565b5b611ee485828601611c33565b9150509250929050565b7f4e487b7100000000000000000000000000000000000000000000000000000000600052602260045260246000fd5b60006002820490506001821680611f3557607f821691505b602082108103611f4857611f47611eee565b5b50919050565b6000606082019050611f63600083018661182b565b611f7060208301856118c1565b611f7d604083018461182b565b949350505050565b7f546f6b656e20646f6573206e6f74206578697374000000000000000000000000600082015250565b6000611fbb6014836116ef565b9150611fc682611f85565b602082019050919050565b60006020820190508181036000830152611fea81611fae565b9050919050565b7f4e487b7100000000000000000000000000000000000000000000000000000000600052603260045260246000fd5b60008190508160005260206000209050919050565b60006020601f8301049050919050565b600082821b905092915050565b6000600883026120827fffffffffffffffffffffffffffffffffffffffffffffffffffffffffffffffff82612045565b61208c8683612045565b95508019841693508086168417925050509392505050565b6000819050919050565b60006120c96120c46120bf84611796565b6120a4565b611796565b9050919050565b6000819050919050565b6120e3836120ae565b6120f76120ef826120d0565b848454612052565b825550505050565b600090565b61210c6120ff565b6121178184846120da565b505050565b5b8181101561213b57612130600082612104565b60018101905061211d565b5050565b601f8211156121805761215181612020565b61215a84612035565b81016020851015612169578190505b61217d61217585612035565b83018261211c565b50505b505050565b600082821c905092915050565b60006121a360001984600802612185565b1980831691505092915050565b60006121bc8383612192565b9150826002028217905092915050565b6121d5826116e4565b67ffffffffffffffff8111156121ee576121ed6119e1565b5b6121f88254611f1d565b61220382828561213f565b600060209050601f8311600181146122365760008415612224578287015190505b61222e85826121b0565b865550612296565b601f19841661224486612020565b60005b8281101561226c57848901518255600182019150602085019450602081019050612247565b868310156122895784890151612285601f891682612192565b8355505b6001600288020188555050505b505050505050565b7f4e487b7100000000000000000000000000000000000000000000000000000000600052601160045260246000fd5b60006122d882611796565b91507fffffffffffffffffffffffffffffffffffffffffffffffffffffffffffffffff820361230a5761230961229e565b5b600182019050919050565b600081519050919050565b600082825260208201905092915050565b600061233c82612315565b6123468185612320565b9350612356818560208601611700565b61235f8161172a565b840191505092915050565b600060808201905061237f600083018761182b565b61238c602083018661182b565b61239960408301856118c1565b81810360608301526123ab8184612331565b905095945050505050565b6000815190506123c581611655565b92915050565b6000602082840312156123e1576123e061161f565b5b60006123ef848285016123b6565b91505092915050565b600060408201905061240d600083018561182b565b61241a60208301846118c1565b939250505056fea26469706673582212207d8f04f511ecacd0f5f695863ca0c3eba0353ce0422e15e3297c51c8b55fbf4864736f6c63430008140033",
  "linkReferences": {},
  "deployedLinkReferences": {}
}